{
  "abi": [
    {
      "type": "constructor",
      "inputs": [
        {
          "name": "riscZeroVerifier",
          "type": "address",
          "internalType": "contract IRiscZeroVerifier"
        },
        {
          "name": "complianceCircuitID",
          "type": "bytes32",
          "internalType": "bytes32"
        },
        {
          "name": "commitmentTreeDepth",
          "type": "uint8",
          "internalType": "uint8"
        },
        {
          "name": "actionTreeDepth",
          "type": "uint8",
          "internalType": "uint8"
        }
      ],
      "stateMutability": "nonpayable"
    },
    {
      "type": "function",
      "name": "containsRoot",
      "inputs": [
        {
          "name": "root",
          "type": "bytes32",
          "internalType": "bytes32"
        }
      ],
      "outputs": [
        {
          "name": "isContained",
          "type": "bool",
          "internalType": "bool"
        }
      ],
      "stateMutability": "view"
    },
    {
      "type": "function",
      "name": "execute",
      "inputs": [
        {
          "name": "transaction",
          "type": "tuple",
          "internalType": "struct Transaction",
          "components": [
            {
              "name": "actions",
              "type": "tuple[]",
              "internalType": "struct Action[]",
              "components": [
                {
                  "name": "logicProofs",
                  "type": "tuple[]",
                  "internalType": "struct LogicProof[]",
                  "components": [
                    {
                      "name": "proof",
                      "type": "bytes",
                      "internalType": "bytes"
                    },
                    {
                      "name": "instance",
                      "type": "tuple",
                      "internalType": "struct LogicInstance",
                      "components": [
                        {
                          "name": "tag",
                          "type": "bytes32",
                          "internalType": "bytes32"
                        },
                        {
                          "name": "isConsumed",
                          "type": "bool",
                          "internalType": "bool"
                        },
                        {
                          "name": "actionTreeRoot",
                          "type": "bytes32",
                          "internalType": "bytes32"
                        },
                        {
                          "name": "ciphertext",
                          "type": "bytes",
                          "internalType": "bytes"
                        },
                        {
                          "name": "appData",
                          "type": "tuple[]",
                          "internalType": "struct ExpirableBlob[]",
                          "components": [
                            {
                              "name": "deletionCriterion",
                              "type": "uint8",
                              "internalType": "enum DeletionCriterion"
                            },
                            {
                              "name": "blob",
                              "type": "bytes",
                              "internalType": "bytes"
                            }
                          ]
                        }
                      ]
                    },
                    {
                      "name": "logicRef",
                      "type": "bytes32",
                      "internalType": "bytes32"
                    }
                  ]
                },
                {
                  "name": "complianceUnits",
                  "type": "tuple[]",
                  "internalType": "struct ComplianceUnit[]",
                  "components": [
                    {
                      "name": "proof",
                      "type": "bytes",
                      "internalType": "bytes"
                    },
                    {
                      "name": "instance",
                      "type": "tuple",
                      "internalType": "struct ComplianceInstance",
                      "components": [
                        {
                          "name": "consumed",
                          "type": "tuple",
                          "internalType": "struct ConsumedRefs",
                          "components": [
                            {
                              "name": "nullifier",
                              "type": "bytes32",
                              "internalType": "bytes32"
                            },
                            {
                              "name": "logicRef",
                              "type": "bytes32",
                              "internalType": "bytes32"
                            },
                            {
                              "name": "commitmentTreeRoot",
                              "type": "bytes32",
                              "internalType": "bytes32"
                            }
                          ]
                        },
                        {
                          "name": "created",
                          "type": "tuple",
                          "internalType": "struct CreatedRefs",
                          "components": [
                            {
                              "name": "commitment",
                              "type": "bytes32",
                              "internalType": "bytes32"
                            },
                            {
                              "name": "logicRef",
                              "type": "bytes32",
                              "internalType": "bytes32"
                            }
                          ]
                        },
                        {
                          "name": "unitDelta",
                          "type": "uint256[2]",
                          "internalType": "uint256[2]"
                        }
                      ]
                    }
                  ]
                },
                {
                  "name": "resourceCalldataPairs",
                  "type": "tuple[]",
                  "internalType": "struct ResourceForwarderCalldataPair[]",
                  "components": [
                    {
                      "name": "carrier",
                      "type": "tuple",
                      "internalType": "struct Resource",
                      "components": [
                        {
                          "name": "logicRef",
                          "type": "bytes32",
                          "internalType": "bytes32"
                        },
                        {
                          "name": "labelRef",
                          "type": "bytes32",
                          "internalType": "bytes32"
                        },
                        {
                          "name": "valueRef",
                          "type": "bytes32",
                          "internalType": "bytes32"
                        },
                        {
                          "name": "nullifierKeyCommitment",
                          "type": "bytes32",
                          "internalType": "bytes32"
                        },
                        {
                          "name": "quantity",
                          "type": "uint256",
                          "internalType": "uint256"
                        },
                        {
                          "name": "nonce",
                          "type": "uint256",
                          "internalType": "uint256"
                        },
                        {
                          "name": "randSeed",
                          "type": "uint256",
                          "internalType": "uint256"
                        },
                        {
                          "name": "ephemeral",
                          "type": "bool",
                          "internalType": "bool"
                        }
                      ]
                    },
                    {
                      "name": "call",
                      "type": "tuple",
                      "internalType": "struct ForwarderCalldata",
                      "components": [
                        {
                          "name": "untrustedForwarder",
                          "type": "address",
                          "internalType": "address"
                        },
                        {
                          "name": "input",
                          "type": "bytes",
                          "internalType": "bytes"
                        },
                        {
                          "name": "output",
                          "type": "bytes",
                          "internalType": "bytes"
                        }
                      ]
                    }
                  ]
                }
              ]
            },
            {
              "name": "deltaProof",
              "type": "bytes",
              "internalType": "bytes"
            }
          ]
        }
      ],
      "outputs": [],
      "stateMutability": "nonpayable"
    },
    {
      "type": "function",
      "name": "latestRoot",
      "inputs": [],
      "outputs": [
        {
          "name": "root",
          "type": "bytes32",
          "internalType": "bytes32"
        }
      ],
      "stateMutability": "view"
    },
    {
      "type": "function",
      "name": "lookupBlob",
      "inputs": [
        {
          "name": "blobHash",
          "type": "bytes32",
          "internalType": "bytes32"
        }
      ],
      "outputs": [
        {
          "name": "blob",
          "type": "bytes",
          "internalType": "bytes"
        }
      ],
      "stateMutability": "view"
    },
    {
      "type": "function",
      "name": "merkleProof",
      "inputs": [
        {
          "name": "commitment",
          "type": "bytes32",
          "internalType": "bytes32"
        }
      ],
      "outputs": [
        {
          "name": "siblings",
          "type": "bytes32[]",
          "internalType": "bytes32[]"
        },
        {
          "name": "directionBits",
          "type": "uint256",
          "internalType": "uint256"
        }
      ],
      "stateMutability": "view"
    },
    {
      "type": "function",
      "name": "verify",
      "inputs": [
        {
          "name": "transaction",
          "type": "tuple",
          "internalType": "struct Transaction",
          "components": [
            {
              "name": "actions",
              "type": "tuple[]",
              "internalType": "struct Action[]",
              "components": [
                {
                  "name": "logicProofs",
                  "type": "tuple[]",
                  "internalType": "struct LogicProof[]",
                  "components": [
                    {
                      "name": "proof",
                      "type": "bytes",
                      "internalType": "bytes"
                    },
                    {
                      "name": "instance",
                      "type": "tuple",
                      "internalType": "struct LogicInstance",
                      "components": [
                        {
                          "name": "tag",
                          "type": "bytes32",
                          "internalType": "bytes32"
                        },
                        {
                          "name": "isConsumed",
                          "type": "bool",
                          "internalType": "bool"
                        },
                        {
                          "name": "actionTreeRoot",
                          "type": "bytes32",
                          "internalType": "bytes32"
                        },
                        {
                          "name": "ciphertext",
                          "type": "bytes",
                          "internalType": "bytes"
                        },
                        {
                          "name": "appData",
                          "type": "tuple[]",
                          "internalType": "struct ExpirableBlob[]",
                          "components": [
                            {
                              "name": "deletionCriterion",
                              "type": "uint8",
                              "internalType": "enum DeletionCriterion"
                            },
                            {
                              "name": "blob",
                              "type": "bytes",
                              "internalType": "bytes"
                            }
                          ]
                        }
                      ]
                    },
                    {
                      "name": "logicRef",
                      "type": "bytes32",
                      "internalType": "bytes32"
                    }
                  ]
                },
                {
                  "name": "complianceUnits",
                  "type": "tuple[]",
                  "internalType": "struct ComplianceUnit[]",
                  "components": [
                    {
                      "name": "proof",
                      "type": "bytes",
                      "internalType": "bytes"
                    },
                    {
                      "name": "instance",
                      "type": "tuple",
                      "internalType": "struct ComplianceInstance",
                      "components": [
                        {
                          "name": "consumed",
                          "type": "tuple",
                          "internalType": "struct ConsumedRefs",
                          "components": [
                            {
                              "name": "nullifier",
                              "type": "bytes32",
                              "internalType": "bytes32"
                            },
                            {
                              "name": "logicRef",
                              "type": "bytes32",
                              "internalType": "bytes32"
                            },
                            {
                              "name": "commitmentTreeRoot",
                              "type": "bytes32",
                              "internalType": "bytes32"
                            }
                          ]
                        },
                        {
                          "name": "created",
                          "type": "tuple",
                          "internalType": "struct CreatedRefs",
                          "components": [
                            {
                              "name": "commitment",
                              "type": "bytes32",
                              "internalType": "bytes32"
                            },
                            {
                              "name": "logicRef",
                              "type": "bytes32",
                              "internalType": "bytes32"
                            }
                          ]
                        },
                        {
                          "name": "unitDelta",
                          "type": "uint256[2]",
                          "internalType": "uint256[2]"
                        }
                      ]
                    }
                  ]
                },
                {
                  "name": "resourceCalldataPairs",
                  "type": "tuple[]",
                  "internalType": "struct ResourceForwarderCalldataPair[]",
                  "components": [
                    {
                      "name": "carrier",
                      "type": "tuple",
                      "internalType": "struct Resource",
                      "components": [
                        {
                          "name": "logicRef",
                          "type": "bytes32",
                          "internalType": "bytes32"
                        },
                        {
                          "name": "labelRef",
                          "type": "bytes32",
                          "internalType": "bytes32"
                        },
                        {
                          "name": "valueRef",
                          "type": "bytes32",
                          "internalType": "bytes32"
                        },
                        {
                          "name": "nullifierKeyCommitment",
                          "type": "bytes32",
                          "internalType": "bytes32"
                        },
                        {
                          "name": "quantity",
                          "type": "uint256",
                          "internalType": "uint256"
                        },
                        {
                          "name": "nonce",
                          "type": "uint256",
                          "internalType": "uint256"
                        },
                        {
                          "name": "randSeed",
                          "type": "uint256",
                          "internalType": "uint256"
                        },
                        {
                          "name": "ephemeral",
                          "type": "bool",
                          "internalType": "bool"
                        }
                      ]
                    },
                    {
                      "name": "call",
                      "type": "tuple",
                      "internalType": "struct ForwarderCalldata",
                      "components": [
                        {
                          "name": "untrustedForwarder",
                          "type": "address",
                          "internalType": "address"
                        },
                        {
                          "name": "input",
                          "type": "bytes",
                          "internalType": "bytes"
                        },
                        {
                          "name": "output",
                          "type": "bytes",
                          "internalType": "bytes"
                        }
                      ]
                    }
                  ]
                }
              ]
            },
            {
              "name": "deltaProof",
              "type": "bytes",
              "internalType": "bytes"
            }
          ]
        }
      ],
      "outputs": [],
      "stateMutability": "view"
    },
    {
      "type": "function",
      "name": "verifyMerkleProof",
      "inputs": [
        {
          "name": "root",
          "type": "bytes32",
          "internalType": "bytes32"
        },
        {
          "name": "commitment",
          "type": "bytes32",
          "internalType": "bytes32"
        },
        {
          "name": "path",
          "type": "bytes32[]",
          "internalType": "bytes32[]"
        },
        {
          "name": "directionBits",
          "type": "uint256",
          "internalType": "uint256"
        }
      ],
      "outputs": [],
      "stateMutability": "view"
    },
    {
      "type": "event",
      "name": "BlobStored",
      "inputs": [
        {
          "name": "blobHash",
          "type": "bytes32",
          "indexed": true,
          "internalType": "bytes32"
        },
        {
          "name": "deletionCriterion",
          "type": "uint8",
          "indexed": true,
          "internalType": "enum DeletionCriterion"
        }
      ],
      "anonymous": false
    },
    {
      "type": "event",
      "name": "CommitmentAdded",
      "inputs": [
        {
          "name": "commitment",
          "type": "bytes32",
          "indexed": true,
          "internalType": "bytes32"
        },
        {
          "name": "index",
          "type": "uint256",
          "indexed": true,
          "internalType": "uint256"
        }
      ],
      "anonymous": false
    },
    {
      "type": "event",
      "name": "NullifierAdded",
      "inputs": [
        {
          "name": "nullifier",
          "type": "bytes32",
          "indexed": true,
          "internalType": "bytes32"
        },
        {
          "name": "index",
          "type": "uint256",
          "indexed": true,
          "internalType": "uint256"
        }
      ],
      "anonymous": false
    },
    {
      "type": "event",
      "name": "RootAdded",
      "inputs": [
        {
          "name": "root",
          "type": "bytes32",
          "indexed": true,
          "internalType": "bytes32"
        }
      ],
      "anonymous": false
    },
    {
      "type": "event",
      "name": "TransactionExecuted",
      "inputs": [
        {
          "name": "id",
          "type": "uint256",
          "indexed": true,
          "internalType": "uint256"
        },
        {
          "name": "transaction",
          "type": "tuple",
          "indexed": false,
          "internalType": "struct Transaction",
          "components": [
            {
              "name": "actions",
              "type": "tuple[]",
              "internalType": "struct Action[]",
              "components": [
                {
                  "name": "logicProofs",
                  "type": "tuple[]",
                  "internalType": "struct LogicProof[]",
                  "components": [
                    {
                      "name": "proof",
                      "type": "bytes",
                      "internalType": "bytes"
                    },
                    {
                      "name": "instance",
                      "type": "tuple",
                      "internalType": "struct LogicInstance",
                      "components": [
                        {
                          "name": "tag",
                          "type": "bytes32",
                          "internalType": "bytes32"
                        },
                        {
                          "name": "isConsumed",
                          "type": "bool",
                          "internalType": "bool"
                        },
                        {
                          "name": "actionTreeRoot",
                          "type": "bytes32",
                          "internalType": "bytes32"
                        },
                        {
                          "name": "ciphertext",
                          "type": "bytes",
                          "internalType": "bytes"
                        },
                        {
                          "name": "appData",
                          "type": "tuple[]",
                          "internalType": "struct ExpirableBlob[]",
                          "components": [
                            {
                              "name": "deletionCriterion",
                              "type": "uint8",
                              "internalType": "enum DeletionCriterion"
                            },
                            {
                              "name": "blob",
                              "type": "bytes",
                              "internalType": "bytes"
                            }
                          ]
                        }
                      ]
                    },
                    {
                      "name": "logicRef",
                      "type": "bytes32",
                      "internalType": "bytes32"
                    }
                  ]
                },
                {
                  "name": "complianceUnits",
                  "type": "tuple[]",
                  "internalType": "struct ComplianceUnit[]",
                  "components": [
                    {
                      "name": "proof",
                      "type": "bytes",
                      "internalType": "bytes"
                    },
                    {
                      "name": "instance",
                      "type": "tuple",
                      "internalType": "struct ComplianceInstance",
                      "components": [
                        {
                          "name": "consumed",
                          "type": "tuple",
                          "internalType": "struct ConsumedRefs",
                          "components": [
                            {
                              "name": "nullifier",
                              "type": "bytes32",
                              "internalType": "bytes32"
                            },
                            {
                              "name": "logicRef",
                              "type": "bytes32",
                              "internalType": "bytes32"
                            },
                            {
                              "name": "commitmentTreeRoot",
                              "type": "bytes32",
                              "internalType": "bytes32"
                            }
                          ]
                        },
                        {
                          "name": "created",
                          "type": "tuple",
                          "internalType": "struct CreatedRefs",
                          "components": [
                            {
                              "name": "commitment",
                              "type": "bytes32",
                              "internalType": "bytes32"
                            },
                            {
                              "name": "logicRef",
                              "type": "bytes32",
                              "internalType": "bytes32"
                            }
                          ]
                        },
                        {
                          "name": "unitDelta",
                          "type": "uint256[2]",
                          "internalType": "uint256[2]"
                        }
                      ]
                    }
                  ]
                },
                {
                  "name": "resourceCalldataPairs",
                  "type": "tuple[]",
                  "internalType": "struct ResourceForwarderCalldataPair[]",
                  "components": [
                    {
                      "name": "carrier",
                      "type": "tuple",
                      "internalType": "struct Resource",
                      "components": [
                        {
                          "name": "logicRef",
                          "type": "bytes32",
                          "internalType": "bytes32"
                        },
                        {
                          "name": "labelRef",
                          "type": "bytes32",
                          "internalType": "bytes32"
                        },
                        {
                          "name": "valueRef",
                          "type": "bytes32",
                          "internalType": "bytes32"
                        },
                        {
                          "name": "nullifierKeyCommitment",
                          "type": "bytes32",
                          "internalType": "bytes32"
                        },
                        {
                          "name": "quantity",
                          "type": "uint256",
                          "internalType": "uint256"
                        },
                        {
                          "name": "nonce",
                          "type": "uint256",
                          "internalType": "uint256"
                        },
                        {
                          "name": "randSeed",
                          "type": "uint256",
                          "internalType": "uint256"
                        },
                        {
                          "name": "ephemeral",
                          "type": "bool",
                          "internalType": "bool"
                        }
                      ]
                    },
                    {
                      "name": "call",
                      "type": "tuple",
                      "internalType": "struct ForwarderCalldata",
                      "components": [
                        {
                          "name": "untrustedForwarder",
                          "type": "address",
                          "internalType": "address"
                        },
                        {
                          "name": "input",
                          "type": "bytes",
                          "internalType": "bytes"
                        },
                        {
                          "name": "output",
                          "type": "bytes",
                          "internalType": "bytes"
                        }
                      ]
                    }
                  ]
                }
              ]
            },
            {
              "name": "deltaProof",
              "type": "bytes",
              "internalType": "bytes"
            }
          ]
        }
      ],
      "anonymous": false
    },
    {
      "type": "error",
      "name": "BlobEmpty",
      "inputs": []
    },
    {
      "type": "error",
      "name": "BlobHashMismatch",
      "inputs": [
        {
          "name": "expected",
          "type": "bytes32",
          "internalType": "bytes32"
        },
        {
          "name": "actual",
          "type": "bytes32",
          "internalType": "bytes32"
        }
      ]
    },
    {
      "type": "error",
      "name": "BlobNotFound",
      "inputs": [
        {
          "name": "blobHash",
          "type": "bytes32",
          "internalType": "bytes32"
        }
      ]
    },
    {
      "type": "error",
      "name": "CalldataCarrierAppDataMismatch",
      "inputs": [
        {
          "name": "expected",
          "type": "bytes32",
          "internalType": "bytes32"
        },
        {
          "name": "actual",
          "type": "bytes32",
          "internalType": "bytes32"
        }
      ]
    },
    {
      "type": "error",
      "name": "CalldataCarrierCommitmentNotFound",
      "inputs": [
        {
          "name": "commitment",
          "type": "bytes32",
          "internalType": "bytes32"
        }
      ]
    },
    {
      "type": "error",
      "name": "CalldataCarrierKindMismatch",
      "inputs": [
        {
          "name": "expected",
          "type": "bytes32",
          "internalType": "bytes32"
        },
        {
          "name": "actual",
          "type": "bytes32",
          "internalType": "bytes32"
        }
      ]
    },
    {
      "type": "error",
      "name": "CalldataCarrierLabelMismatch",
      "inputs": [
        {
          "name": "expected",
          "type": "bytes32",
          "internalType": "bytes32"
        },
        {
          "name": "actual",
          "type": "bytes32",
          "internalType": "bytes32"
        }
      ]
    },
    {
      "type": "error",
      "name": "CommitmentIndexOutOfBounds",
      "inputs": [
        {
          "name": "current",
          "type": "uint256",
          "internalType": "uint256"
        },
        {
          "name": "limit",
          "type": "uint256",
          "internalType": "uint256"
        }
      ]
    },
    {
      "type": "error",
      "name": "CommitmentMismatch",
      "inputs": [
        {
          "name": "expected",
          "type": "bytes32",
          "internalType": "bytes32"
        },
        {
          "name": "actual",
          "type": "bytes32",
          "internalType": "bytes32"
        }
      ]
    },
    {
      "type": "error",
      "name": "DeletionCriterionNotSupported",
      "inputs": [
        {
          "name": "deletionCriterion",
          "type": "uint8",
          "internalType": "enum DeletionCriterion"
        }
      ]
    },
    {
      "type": "error",
      "name": "DeltaMismatch",
      "inputs": [
        {
          "name": "expected",
          "type": "address",
          "internalType": "address"
        },
        {
          "name": "actual",
          "type": "address",
          "internalType": "address"
        }
      ]
    },
    {
      "type": "error",
      "name": "ECDSAInvalidSignature",
      "inputs": []
    },
    {
      "type": "error",
      "name": "ECDSAInvalidSignatureLength",
      "inputs": [
        {
          "name": "length",
          "type": "uint256",
          "internalType": "uint256"
        }
      ]
    },
    {
      "type": "error",
      "name": "ECDSAInvalidSignatureS",
      "inputs": [
        {
          "name": "s",
          "type": "bytes32",
          "internalType": "bytes32"
        }
      ]
    },
    {
      "type": "error",
      "name": "EmptyCommitment",
      "inputs": []
    },
    {
      "type": "error",
      "name": "ForwarderCallOutputMismatch",
      "inputs": [
        {
          "name": "expected",
          "type": "bytes",
          "internalType": "bytes"
        },
        {
          "name": "actual",
          "type": "bytes",
          "internalType": "bytes"
        }
      ]
    },
    {
      "type": "error",
      "name": "InvalidCommitmentRef",
      "inputs": [
        {
          "name": "commitment",
          "type": "bytes32",
          "internalType": "bytes32"
        }
      ]
    },
    {
      "type": "error",
      "name": "InvalidNullifierRef",
      "inputs": [
        {
          "name": "nullifier",
          "type": "bytes32",
          "internalType": "bytes32"
        }
      ]
    },
    {
      "type": "error",
      "name": "InvalidPathLength",
      "inputs": [
        {
          "name": "expected",
          "type": "uint256",
          "internalType": "uint256"
        },
        {
          "name": "actual",
          "type": "uint256",
          "internalType": "uint256"
        }
      ]
    },
    {
      "type": "error",
      "name": "InvalidRoot",
      "inputs": [
        {
          "name": "expected",
          "type": "bytes32",
          "internalType": "bytes32"
        },
        {
          "name": "actual",
          "type": "bytes32",
          "internalType": "bytes32"
        }
      ]
    },
    {
      "type": "error",
      "name": "InvalidRootRef",
      "inputs": [
        {
          "name": "root",
          "type": "bytes32",
          "internalType": "bytes32"
        }
      ]
    },
    {
      "type": "error",
      "name": "LogicProofTagNotFound",
      "inputs": [
        {
          "name": "tag",
          "type": "bytes32",
          "internalType": "bytes32"
        }
      ]
    },
    {
      "type": "error",
      "name": "LogicRefMismatch",
      "inputs": [
        {
          "name": "expected",
          "type": "bytes32",
          "internalType": "bytes32"
        },
        {
          "name": "actual",
          "type": "bytes32",
          "internalType": "bytes32"
        }
      ]
    },
    {
      "type": "error",
      "name": "NonEmptyDelta",
      "inputs": []
    },
    {
      "type": "error",
      "name": "NonExistentLeafIndex",
      "inputs": [
        {
          "name": "index",
          "type": "uint256",
          "internalType": "uint256"
        }
      ]
    },
    {
      "type": "error",
      "name": "NonExistingCommitment",
      "inputs": [
        {
          "name": "commitment",
          "type": "bytes32",
          "internalType": "bytes32"
        }
      ]
    },
    {
      "type": "error",
      "name": "NonExistingRoot",
      "inputs": [
        {
          "name": "root",
          "type": "bytes32",
          "internalType": "bytes32"
        }
      ]
    },
    {
      "type": "error",
      "name": "PreExistingCommitment",
      "inputs": [
        {
          "name": "commitment",
          "type": "bytes32",
          "internalType": "bytes32"
        }
      ]
    },
    {
      "type": "error",
      "name": "PreExistingNullifier",
      "inputs": [
        {
          "name": "nullifier",
          "type": "bytes32",
          "internalType": "bytes32"
        }
      ]
    },
    {
      "type": "error",
      "name": "PreExistingRoot",
      "inputs": [
        {
          "name": "root",
          "type": "bytes32",
          "internalType": "bytes32"
        }
      ]
    },
    {
      "type": "error",
      "name": "ReentrancyGuardReentrantCall",
      "inputs": []
    },
    {
      "type": "error",
      "name": "RootMismatch",
      "inputs": [
        {
          "name": "expected",
          "type": "bytes32",
          "internalType": "bytes32"
        },
        {
          "name": "actual",
          "type": "bytes32",
          "internalType": "bytes32"
        }
      ]
    },
    {
      "type": "error",
      "name": "TreeCapacityExceeded",
      "inputs": []
    }
  ],
  "bytecode": {
    "object": "0x60e0806040523461016b57608081613178803803809161001f828561016f565b83398101031261016b578051906001600160a01b038216820361016b5760208101519160ff61005c6060610055604086016101a6565b94016101a6565b9216806002557fcc1d2f838445db7aec431df9ee8a871f40e7aa5e064fc056633ef8c60fab7b06905f905b80821061010a5750505f805561009c816101b4565b156100f8575060805260c05260a052604051612f3790816102418239608051818181611abb01528181611b3701528181611e300152611ec9015260a05181611e87015260c051818181611973015281816119a201526119d10152f35b63db788c2b60e01b5f5260045260245ffd5b90915f60209160028252808584842001556040518381019180835260408201526040815261013960608261016f565b604051918291518091835e8101838152039060025afa156101605760015f51920190610087565b6040513d5f823e3d90fd5b5f80fd5b601f909101601f19168101906001600160401b0382119082101761019257604052565b634e487b7160e01b5f52604160045260245ffd5b519060ff8216820361016b57565b805f52600460205260405f2054155f1461023b5760035468010000000000000000811015610192576001810180600355811015610227577fc2575a0e9e593c00f959f8c92f12db2869c3395a3b0502d05e2516446f71f85b018190556003545f9182526004602052604090912055600190565b634e487b7160e01b5f52603260045260245ffd5b505f9056fe60806040526004361015610011575f80fd5b5f3560e01c806348cbdfca14610f1b57806359a8928314610d6e5780638310d48514610d375780639a49e741146103a7578063c235cd9e14610135578063d7b0fef1146100825763f3eeec5514610066575f80fd5b3461007e5761007c61007736610f74565b6116dd565b005b5f80fd5b3461007e575f60031936011261007e576003545f1981018181116101085760035411156100db5760035f527fc2575a0e9e593c00f959f8c92f12db2869c3395a3b0502d05e2516446f71f85a0154604051908152602090f35b7f4e487b71000000000000000000000000000000000000000000000000000000005f52603260045260245ffd5b7f4e487b71000000000000000000000000000000000000000000000000000000005f52601160045260245ffd5b3461007e57602060031936011261007e57600435600254156100db5760025f527f405787fa12a823e0f2b7631cc41b3ba8828b3321ca811111fa75cd3aa3bb5ace54811461037f57805f52600560205260405f2054908115610354575f19820191808311610108575f5480911161032557505f8281527fa6eef7e35abe7026729641147f7915573c7e97b47efa546f5f6e3230263bcb496020526040902054908082036102f757825f906002546101eb816115b0565b915f905b8282106102435750505060405190604082019260408352815180945260206060840192015f945b80861061022b57505082935060208301520390f35b90926020806001928651815201940195019490610216565b600181166102cc57815f52600160205260405f20906001810191828211610108576001925f5260205260405f20549582841b17955b806102bc575060025f527f405787fa12a823e0f2b7631cc41b3ba8828b3321ca811111fa75cd3aa3bb5ace8301546102b08487611656565b525b811c9101906101ef565b6102c68487611656565b526102b2565b815f52600160205260405f20905f19810191818311610108576001925f5260205260405f2054610278565b7fc9e0e757000000000000000000000000000000000000000000000000000000005f5260045260245260445ffd5b827fdbc744cd000000000000000000000000000000000000000000000000000000005f5260045260245260445ffd5b7fff34f2b6000000000000000000000000000000000000000000000000000000005f5260045260245ffd5b7faac1fcc6000000000000000000000000000000000000000000000000000000005f5260045ffd5b3461007e576103b536610f74565b7f9b779b17422d0df92223018b32b4d1fa46e071723d6817e2486d003becc55f005c610d0f5760017f9b779b17422d0df92223018b32b4d1fa46e071723d6817e2486d003becc55f005d610408816116dd565b610413600954610fa7565b80600955604051602081526060810161042c8480610fb5565b80926040602086015252608083019060808360051b8501019281925f925b8284106109685788887fe6cf32ad35a824b023c28f7d5fd0e9018038406df7c491a244fc5752894d953989806104998b6104876020880188611008565b90601f19858403016040860152611058565b0390a25f906104a881806111d2565b9190505f5b82811061053757836104be8161299e565b1561050c577f388a5f4af784e29fc791e14e90d372b6057e8379d9d5556e843545420c675dea5f80a25f7f9b779b17422d0df92223018b32b4d1fa46e071723d6817e2486d003becc55f005d005b7fdb788c2b000000000000000000000000000000000000000000000000000000005f5260045260245ffd5b61054b8161054584806111d2565b90611259565b61055581806111d2565b90505f5b8181106107505750506040810161057081836111d2565b9290505f5b83811061058857505050506001016104ad565b61061b6105ad6105a28361059c87876111d2565b906112dc565b610100810190611226565b5f73ffffffffffffffffffffffffffffffffffffffff6105cc83612505565b166105da60208401846115e1565b836040939293518097819582947f2dec7eb1000000000000000000000000000000000000000000000000000000008452602060048501526024840191611058565b03925af1918215610745575f926106c9575b508151602083012090604081019161064f61064884846115e1565b36916116a7565b602081519101200361066657505050600101610575565b6106c591610673916115e1565b9190926106b36040519485947fc504fada000000000000000000000000000000000000000000000000000000008652604060048701526044860191611058565b90600319848303016024850152610f4f565b0390fd5b9091503d805f833e6106db818361131c565b81019060208183031261007e5780519067ffffffffffffffff821161007e570181601f8201121561007e5780519061071282611384565b92610720604051948561131c565b8284526020838301011161007e57815f9260208093018386015e83010152908a61062d565b6040513d5f823e3d90fd5b61076b6107618261054586806111d2565b6020810190611270565b6020810135801515810361007e57156108315780356107898161292e565b50600654905f198201918211610108577f48baa580cd3e9c4040ffa9507f688e0d988bb8b15450fb680ce90fe52f7e544a5f80a3905b60808201916107ce83826111d2565b9050155b80156107e95750506107e49150610fa7565b610559565b90916107fe6107f885856111d2565b906112a3565b9061080c60208301836115e1565b9235600281101561007e5761082a9361082492612623565b50610fa7565b91906107d2565b80975035600254905f549061084582610fa7565b5f5560018201808311610108576001841b8111610940578282945f905b8082106108a457505050815f52600560205260405f20557f0c825ce0b2f71c91fa27e49984551a39d6f4db65958d2cf59a0ce45c3948312f5f80a396906107bf565b909195825f52600160205260405f20875f526020528060405f205560018716155f1461090b5760025f527f405787fa12a823e0f2b7631cc41b3ba8828b3321ca811111fa75cd3aa3bb5ace8301546001916108ff91906128d6565b965b811c920190610862565b825f52600160205260405f20905f198801908882116101085760019261093a925f5260205260405f20546128d6565b96610901565b7f494a639d000000000000000000000000000000000000000000000000000000005f5260045ffd5b90919293947fffffffffffffffffffffffffffffffffffffffffffffffffffffffffffffff8087820301835261099e86836111a0565b60608201906109ad8180610fb5565b809360608652526080840160808460051b86010193825f905b828210610c5d5750505050506109df6020820182610fb5565b84849294036020860152808252602082019060208160051b8401019480935f917fffffffffffffffffffffffffffffffffffffffffffffffffffffffffffffff0181360301925b848110610bd45750505050505050806040610a42920190610fb5565b926040818403910152828252602082019060208460051b8401019381935f927ffffffffffffffffffffffffffffffffffffffffffffffffffffffffffffffee181360301905b838510610aab57505050505050506020806001929701930194019291939061044a565b90919293949596601f1984820301875287358381121561007e5782610b299101803583526020810135602084015260408101356040840152606081013560608401526080810135608084015260a081013560a084015260c081013560c0840152610b1760e08201611078565b151560e08401526101008101906111a0565b61012061010083015280359173ffffffffffffffffffffffffffffffffffffffff831680930361007e57610bc56020928260019561012086950152610b94610b89610b7686850185611008565b6060610140860152610180850191611058565b926040810190611008565b916101607ffffffffffffffffffffffffffffffffffffffffffffffffffffffffffffffee082860301910152611058565b99019701950193929190610a88565b90919293949597601f198482030187528835908582121561007e5760208091604086600195019160c080610c1b610c0b8680611008565b6101008652610100860191611058565b9486810135878501528481013585850152606081013560608501526080810135608085015260a081013560a0850152019101379a019701959493929101610a26565b90919293957fffffffffffffffffffffffffffffffffffffffffffffffffffffffffffffff80888203018552610c9387836111a0565b610cae610ca08280611008565b606085526060850191611058565b6020820135917fffffffffffffffffffffffffffffffffffffffffffffffffffffffffffffff618136030183121561007e5783604080610cfc858560209860019a8a990389880152016110bb565b93013591015298019501939201906109c6565b7f3ee5aeb5000000000000000000000000000000000000000000000000000000005f5260045ffd5b3461007e57602060031936011261007e57610d6a610d5660043561141d565b604051918291602083526020830190610f4f565b0390f35b3461007e57608060031936011261007e5760443560043567ffffffffffffffff821161007e573660238301121561007e5781600401359167ffffffffffffffff831161007e5760248360051b82010136811161007e5760643591600254808603610eeb5750610de8845f52600460205260405f2054151590565b15610ebf57610df68561136c565b94610e04604051968761131c565b8552602401602085015b828210610eaf57505050602435928051905f925b828410610e62578585818103610e3457005b7fa0d3b062000000000000000000000000000000000000000000000000000000005f5260045260245260445ffd5b909192946001908183881c16155f14610e9457610e8990610e838886611656565b516128d6565b955b01929190610e22565b610ea990610ea28886611656565b51906128d6565b95610e8b565b8135815260209182019101610e0e565b837ff9849ea3000000000000000000000000000000000000000000000000000000005f5260045260245ffd5b85907f88b3170e000000000000000000000000000000000000000000000000000000005f5260045260245260445ffd5b3461007e57602060031936011261007e576020610f456004355f52600460205260405f2054151590565b6040519015158152f35b90601f19601f602080948051918291828752018686015e5f8582860101520116010190565b602060031982011261007e576004359067ffffffffffffffff821161007e576003198260409203011261007e5760040190565b5f1981146101085760010190565b90357fffffffffffffffffffffffffffffffffffffffffffffffffffffffffffffffe18236030181121561007e57016020813591019167ffffffffffffffff821161007e578160051b3603831361007e57565b90357fffffffffffffffffffffffffffffffffffffffffffffffffffffffffffffffe18236030181121561007e57016020813591019167ffffffffffffffff821161007e57813603831361007e57565b601f8260209493601f1993818652868601375f8582860101520116010190565b3590811515820361007e57565b90813591600283101561007e576110a86040916110b89484526020810190611008565b9190928160208201520191611058565b90565b90813581526110cc60208301611078565b151560208201526040820135604082015261110c6111016110f06060850185611008565b60a0606086015260a0850191611058565b926080810190610fb5565b9290916080818303910152828152602081019260208160051b83010193835f917fffffffffffffffffffffffffffffffffffffffffffffffffffffffffffffffc182360301945b848410611164575050505050505090565b90919293949596601f1982820301835287358781121561007e57602061118f60019387839401611085565b990193019401929195949390611153565b90357fffffffffffffffffffffffffffffffffffffffffffffffffffffffffffffffa18236030181121561007e570190565b9035907fffffffffffffffffffffffffffffffffffffffffffffffffffffffffffffffe18136030182121561007e570180359067ffffffffffffffff821161007e57602001918160051b3603831361007e57565b9035907fffffffffffffffffffffffffffffffffffffffffffffffffffffffffffffffa18136030182121561007e570190565b908210156100db576110b89160051b810190611226565b9035907fffffffffffffffffffffffffffffffffffffffffffffffffffffffffffffff618136030182121561007e570190565b90156100db578035907fffffffffffffffffffffffffffffffffffffffffffffffffffffffffffffffc18136030182121561007e570190565b91908110156100db5760051b810135907ffffffffffffffffffffffffffffffffffffffffffffffffffffffffffffffee18136030182121561007e570190565b90601f601f19910116810190811067ffffffffffffffff82111761133f57604052565b7f4e487b71000000000000000000000000000000000000000000000000000000005f52604160045260245ffd5b67ffffffffffffffff811161133f5760051b60200190565b67ffffffffffffffff811161133f57601f01601f191660200190565b5f6040516113af60208261131c565b525f6040518180805e5260205f808060025afa15610745575f5190565b90600182811c92168015611413575b60208310146113e657565b7f4e487b71000000000000000000000000000000000000000000000000000000005f52602260045260245ffd5b91607f16916113db565b906114266113a0565b821461158857815f52600860205260405f2060405190815f82549261144a846113cc565b9081845260208401946001811690815f1461154d575060011461150e575b50509161147a5f92602094038561131c565b604051809185518091835e8101838152039060025afa15610745575f5161149f6113a0565b81036114d157837f632989d6000000000000000000000000000000000000000000000000000000005f5260045260245ffd5b9091928181036114e057505090565b7f1844c87b000000000000000000000000000000000000000000000000000000005f5260045260245260445ffd5b5f908152602081209092505b818310611531575050810160200161147a5f611468565b602091935080600191548385890101520191019091849261151a565b7fffffffffffffffffffffffffffffffffffffffffffffffffffffffffffffff001686525050151560051b8201602001905061147a5f611468565b7ff82ea8b4000000000000000000000000000000000000000000000000000000005f5260045ffd5b906115ba8261136c565b6115c7604051918261131c565b828152601f196115d7829461136c565b0190602036910137565b9035907fffffffffffffffffffffffffffffffffffffffffffffffffffffffffffffffe18136030182121561007e570180359067ffffffffffffffff821161007e5760200191813603831361007e57565b9061164c9060409396959496606084526060840191611058565b9460208201520152565b80518210156100db5760209160051b010190565b919060408051939061167c908561131c565b83906040810192831161007e57905b82821061169757505050565b813581526020918201910161168b565b9291926116b382611384565b916116c1604051938461131c565b82948184528183011161007e578281602093845f960137010152565b604080516116eb828261131c565b8136823760017f483ada7726a3c4655da4fbfc0e1108a8fd17b448a68554199c47d08ffb10d4b87f79be667ef9dcbbac55a06295ce870b07029bfcdb2dce28d959f2815b16f8179882806124e7565b50806124df575b15612482575f928360016401000003d019835b6123f65750505050906401000003d0198092818086800980920994099009602083015281529161178481806111d2565b90505f805b8282106123c95761179a91506115b0565b905f5f5b8281106119075750506117f55750505080511590816117e8575b50156117c057565b7fe073516d000000000000000000000000000000000000000000000000000000005f5260045ffd5b602091500151155f6117b8565b825160208101918260208251919201905f5b8181106118f15750505091816118295f9360209503601f19810183528261131c565b8551918291518091835e8101838152039060025afa156118e7576118849273ffffffffffffffffffffffffffffffffffffffff9261187b84936118756106485f519260208101906115e1565b90612bb6565b90969196612bf0565b6020825192015190805191602083019384528183015281526118a760608261131c565b519020169116908082036118b9575050565b7fe6d44b4c000000000000000000000000000000000000000000000000000000005f5260045260245260445ffd5b50513d5f823e3d90fd5b8251845260209384019390920191600101611807565b6119158161054587806111d2565b86810161192281836111d2565b9190505f5b8281106120ef5750505061193e60208201826111d2565b5f91505b808210611d1057505061195581806111d2565b9050611960816115b0565b5f5b828110611cea5750611999600160ff7f0000000000000000000000000000000000000000000000000000000000000000161b6115b0565b905f5b600160ff7f0000000000000000000000000000000000000000000000000000000000000000161b8110611c8f575050600160ff7f0000000000000000000000000000000000000000000000000000000000000000161b5b60018111611bd157508051156100db5760200151915f5b828110611a1d575050505060010161179e565b611a2b8161054584806111d2565b6020810190858c611a3c8484611270565b013503611b9457908160205f8e611a5684611a5f976115e1565b96909585611270565b90805190611a8882611a7a87820195888752848301906110bb565b03601f19810184528361131c565b51918291518091835e8101838152039060025afa15611b8a575f519073ffffffffffffffffffffffffffffffffffffffff7f0000000000000000000000000000000000000000000000000000000000000000163b1561007e57611b1e8e925f94845196879586957fab750e7500000000000000000000000000000000000000000000000000000000875201359160048601611632565b038173ffffffffffffffffffffffffffffffffffffffff7f0000000000000000000000000000000000000000000000000000000000000000165afa8015611b80579060019291611b70575b5001611a0a565b5f611b7a9161131c565b5f611b69565b8b513d5f823e3d90fd5b8c513d5f823e3d90fd5b611ba086928d92611270565b0135907f7c532e31000000000000000000000000000000000000000000000000000000005f5260045260245260445ffd5b5f5b8160011c8110611be6575060011c6119f3565b8060011b7f7fffffffffffffffffffffffffffffffffffffffffffffffffffffffffffffff8216820361010857611c1d8185611656565b519060018101809111610108576020918d611c395f9388611656565b519080519185830193845281830152808252611c5660608361131c565b51918291518091835e8101838152039060025afa15611c85576001905f51611c7e8286611656565b5201611bd3565b8a513d5f823e3d90fd5b600190825181105f14611cb957611ca68184611656565b51611cb18286611656565b525b0161199c565b7fcc1d2f838445db7aec431df9ee8a871f40e7aa5e064fc056633ef8c60fab7b06611ce48286611656565b52611cb3565b80611cfe61076160019361054588806111d2565b35611d098285611656565b5201611962565b9098611d1f60208401846111d2565b8b10156100db578a60051b810135907fffffffffffffffffffffffffffffffffffffffffffffffffffffffffffffff018136030182121561007e57016060810135805f5260046020528a5f2054156120c45760208201355f5260076020528a5f20546120945760808201355f5260056020528a5f2054612064578a9060205f611da885806115e1565b9390948051908482019285890135845260808901358284015281890135606084015260a0890135608084015260a083015260c088013560c083015260e088013560e083015260e08252611dfd6101008361131c565b51918291518091835e8101838152039060025afa15611b80575f519173ffffffffffffffffffffffffffffffffffffffff7f0000000000000000000000000000000000000000000000000000000000000000163b1561007e575f91611eb08e5194859384937fab750e750000000000000000000000000000000000000000000000000000000085527f00000000000000000000000000000000000000000000000000000000000000009160048601611632565b038173ffffffffffffffffffffffffffffffffffffffff7f0000000000000000000000000000000000000000000000000000000000000000165afa8015611b8057612054575b5089611f10611f0586806111d2565b6020850135916125a4565b0135808b830135036120215750611f2686610fa7565b95611f366020830135918a611656565b5289611f50611f4586806111d2565b6080850135916125a4565b01358060a083013503611fed575090600191611f6b87610fa7565b96611f7b6080830135918b611656565b52851580611fe5575b15611fa157611f98915060c036910161166a565b995b0190611942565b611fb2611fd89160c036910161166a565b918b5192611fc08d8561131c565b8c3685376020825192015160208251920151926129f3565b6020830152815299611f9a565b508b15611f84565b60a092507f18f639d8000000000000000000000000000000000000000000000000000000005f52600452013560245260445ffd5b8a92507f18f639d8000000000000000000000000000000000000000000000000000000005f52600452013560245260445ffd5b5f61205e9161131c565b5f611ef6565b6080827f96539bd4000000000000000000000000000000000000000000000000000000005f52013560045260245ffd5b6020827f39a940c5000000000000000000000000000000000000000000000000000000005f52013560045260245ffd5b7ff9849ea3000000000000000000000000000000000000000000000000000000005f5260045260245ffd5b6120fd8161059c84876111d2565b61210e6105a28361059c86896111d2565b60205f8d61211c3686612526565b90838251920151908051918583019384528183015280825261213f60608361131c565b51918291518091835e8101838152039060025afa15611b80575f51600460208e73ffffffffffffffffffffffffffffffffffffffff61217d86612505565b169051928380927f033f96a40000000000000000000000000000000000000000000000000000000082525afa9081156123bf575f9161238e575b508082036123605750509061226560205f848f9561224d8761223f6121fc6121e0606095612505565b9561222d6121f08a8301836115e1565b939092868101906115e1565b929093865198899773ffffffffffffffffffffffffffffffffffffffff8e8a019c168c528801526080870191611058565b91601f19858403016060860152611058565b03601f19810183528261131c565b5190209461225b8a806111d2565b9490953690612526565b9080519060e08583019380518552868101518385015282810151606085015260608101516080850152608081015160a085015260a081015160c085015260c0810151828501520151151561010083015261010082526122c66101208361131c565b51918291518091835e8101838152039060025afa15611b8a5761231d6123076107f88f946107616122fd9161223f965f51916125a4565b60808101906111d2565b8351928391602083019560208752830190611085565b51902090808203612332575050600101611927565b7f64cc8b14000000000000000000000000000000000000000000000000000000005f5260045260245260445ffd5b7fd3167e32000000000000000000000000000000000000000000000000000000005f5260045260245260445ffd5b90506020813d82116123b7575b816123a86020938361131c565b8101031261007e57515f6121b7565b3d915061239b565b8e513d5f823e3d90fd5b6123e06123da8361054587806111d2565b806111d2565b9050810180911161010857600190910190611789565b61240584829893949598612606565b928094612455576401000003d0199084096401000003d01903906401000003d0198211610108576124466401000003d01961244c935f950895988095612610565b906124f8565b92909183611754565b7f4e487b71000000000000000000000000000000000000000000000000000000005f52601260045260245ffd5b606485517f08c379a000000000000000000000000000000000000000000000000000000000815260206004820152600e60248201527f496e76616c6964206e756d6265720000000000000000000000000000000000006044820152fd5b506001611741565b6401000003d019915014155f61173a565b9190820391821161010857565b3573ffffffffffffffffffffffffffffffffffffffff8116810361007e5790565b91908261010091031261007e57604051610100810181811067ffffffffffffffff82111761133f5760405260e061259f818395803585526020810135602086015260408101356040860152606081013560608601526080810135608086015260a081013560a086015260c081013560c086015201611078565b910152565b909291925f5b8181106125dd57847f4e90c0bf000000000000000000000000000000000000000000000000000000005f5260045260245ffd5b846125ec610761838587611259565b35146125fa576001016125aa565b916110b8939450611259565b8115612455570490565b8181029291811591840414171561010857565b919060205f6040518386823780848101838152039060025afa15610745575f519261264c6113a0565b841461158857600283109182156127055783612669575050505090565b845f52600860205260405f20604051905f90805490612687826113cc565b91600181169081156128a0575060011461286d575b5050816020925f92039060025afa15610745575f516126b96113a0565b146126c5575050505090565b929491939092600186146127325785857f4d511600000000000000000000000000000000000000000000000000000000005f52156127055760045260245ffd5b7f4e487b71000000000000000000000000000000000000000000000000000000005f52602160045260245ffd5b9193509193506001827f2266f858e35b42156890bf9a1a4dd4ac86bcaf4e1e8a1669096531ac46c9728b5f80a3815f52600860205260405f209067ffffffffffffffff811161133f5761278582546113cc565b601f8111612828575b505f601f82116001146127c75781929394955f926127bc575b50505f198260011b9260031b1c191617905590565b013590505f806127a7565b601f19821695835f5260205f20915f5b888110612810575083600195969798106127f7575b505050811b01905590565b5f1960f88560031b161c199101351690555f80806127ec565b909260206001819286860135815501940191016127d7565b825f5260205f20601f830160051c81019160208410612863575b601f0160051c01905b818110612858575061278e565b5f815560010161284b565b9091508190612842565b9091505f5260205f205f905b82821061288c575050810181602061269c565b600181602092548487015201910190612879565b7fffffffffffffffffffffffffffffffffffffffffffffffffffffffffffffff001685525050801515028201905081602061269c565b5f90602092604051908482019283526040820152604081526128f960608261131c565b604051918291518091835e8101838152039060025afa15610745575f5190565b80548210156100db575f5260205f2001905f90565b805f52600760205260405f2054155f14612999576006546801000000000000000081101561133f5761298261296c8260018594016006556006612919565b81939154905f199060031b92831b921b19161790565b9055600654905f52600760205260405f2055600190565b505f90565b805f52600460205260405f2054155f14612999576003546801000000000000000081101561133f576129dc61296c8260018594016003556003612919565b9055600354905f52600460205260405f2055600190565b9093929091808303612b9d57506401000003d019908408612a1657505f91508190565b6401000003d0198380096401000003d0195f8180808086880960040995800960030908906401000003d019918284800883038381116101085783908183800908938484039284841161010857848091800960080984038481116101085784600193818096819508900908950960020992905b8315158481612b8c575b5080612b84575b15612b26575f938460016401000003d019835b612acd5750505050906401000003d019809281808780098092099509900990565b612adc84829993949599612606565b928094612455576401000003d0199084096401000003d01903906401000003d0198211610108576124466401000003d019612b1d935f950895998095612610565b92909183612aac565b60646040517f08c379a000000000000000000000000000000000000000000000000000000000815260206004820152600e60248201527f496e76616c6964206e756d6265720000000000000000000000000000000000006044820152fd5b506001612a99565b6401000003d019915014155f612a92565b612baf93946401000003d01993612c9b565b9291612a88565b8151919060418303612be657612bdf9250602082015190606060408401519301515f1a90612ea8565b9192909190565b50505f9160029190565b60048110156127055780612c02575050565b60018103612c32577ff645eedf000000000000000000000000000000000000000000000000000000005f5260045ffd5b60028103612c6657507ffce698f7000000000000000000000000000000000000000000000000000000005f5260045260245ffd5b600314612c705750565b7fd78bce0c000000000000000000000000000000000000000000000000000000005f5260045260245ffd5b9492909391851580612ea0575b612e9557801580612e8d575b612e8557604051608091612cc8838361131c565b8236833784156124555784600180098083529385856001099860208401998a52604084019286845287845160010993606086019485526040519a878c01958c871067ffffffffffffffff88111761133f578a80979581969482956040525190098d525190099460208b019586525190099860408901998a52519009606087019081528651885114801590612e79575b15612e1b57849283808093816040519c85612d738f978861131c565b368737518c51612d8390836124f8565b90088452518551612d9490836124f8565b90089860208301998a5281808b8180808089518a5190099360408a019485528185518b5190096060909a01998a525180098851612dd190836124f8565b90088180875185519009600209612de890836124f8565b90089c51935190519009612dfc8c836124f8565b90089009925190519009612e1090836124f8565b900894510991929190565b60646040517f08c379a000000000000000000000000000000000000000000000000000000000815260206004820152601e60248201527f557365206a6163446f75626c652066756e6374696f6e20696e737465616400006044820152fd5b50815181511415612d57565b505050600190565b508115612cb4565b945092506001919050565b508415612ca8565b91907f7fffffffffffffffffffffffffffffff5d576e7357a4501ddfe92f46681b20a08411612f2c579160209360809260ff5f9560405194855216868401526040830152606082015282805260015afa15610745575f5173ffffffffffffffffffffffffffffffffffffffff811615612f2257905f905f90565b505f906001905f90565b5050505f916003919056",
    "linkReferences": {}
  },
  "methodIdentifiers": {
    "containsRoot(bytes32)": "48cbdfca",
    "execute((((bytes,(bytes32,bool,bytes32,bytes,(uint8,bytes)[]),bytes32)[],(bytes,((bytes32,bytes32,bytes32),(bytes32,bytes32),uint256[2]))[],((bytes32,bytes32,bytes32,bytes32,uint256,uint256,uint256,bool),(address,bytes,bytes))[])[],bytes))": "9a49e741",
    "latestRoot()": "d7b0fef1",
    "lookupBlob(bytes32)": "8310d485",
    "merkleProof(bytes32)": "c235cd9e",
    "verify((((bytes,(bytes32,bool,bytes32,bytes,(uint8,bytes)[]),bytes32)[],(bytes,((bytes32,bytes32,bytes32),(bytes32,bytes32),uint256[2]))[],((bytes32,bytes32,bytes32,bytes32,uint256,uint256,uint256,bool),(address,bytes,bytes))[])[],bytes))": "f3eeec55",
    "verifyMerkleProof(bytes32,bytes32,bytes32[],uint256)": "59a89283"
  },
  "id": 41
}