{
  "abi": [
    {
      "type": "constructor",
      "inputs": [
        {
          "name": "riscZeroVerifier",
          "type": "address",
          "internalType": "contract IRiscZeroVerifier"
        },
        {
          "name": "complianceCircuitID",
          "type": "bytes32",
          "internalType": "bytes32"
        },
        {
          "name": "commitmentTreeDepth",
          "type": "uint8",
          "internalType": "uint8"
        },
        {
          "name": "actionTreeDepth",
          "type": "uint8",
          "internalType": "uint8"
        }
      ],
      "stateMutability": "nonpayable"
    },
    {
      "type": "function",
      "name": "containsRoot",
      "inputs": [
        {
          "name": "root",
          "type": "bytes32",
          "internalType": "bytes32"
        }
      ],
      "outputs": [
        {
          "name": "isContained",
          "type": "bool",
          "internalType": "bool"
        }
      ],
      "stateMutability": "view"
    },
    {
      "type": "function",
      "name": "execute",
      "inputs": [
        {
          "name": "transaction",
          "type": "tuple",
          "internalType": "struct Transaction",
          "components": [
            {
              "name": "actions",
              "type": "tuple[]",
              "internalType": "struct Action[]",
              "components": [
                {
                  "name": "logicProofs",
                  "type": "tuple[]",
                  "internalType": "struct LogicProof[]",
                  "components": [
                    {
                      "name": "proof",
                      "type": "bytes",
                      "internalType": "bytes"
                    },
                    {
                      "name": "instance",
                      "type": "tuple",
                      "internalType": "struct LogicInstance",
                      "components": [
                        {
                          "name": "tag",
                          "type": "bytes32",
                          "internalType": "bytes32"
                        },
                        {
                          "name": "isConsumed",
                          "type": "bool",
                          "internalType": "bool"
                        },
                        {
                          "name": "actionTreeRoot",
                          "type": "bytes32",
                          "internalType": "bytes32"
                        },
                        {
                          "name": "ciphertext",
                          "type": "bytes",
                          "internalType": "bytes"
                        },
                        {
                          "name": "appData",
                          "type": "tuple[]",
                          "internalType": "struct ExpirableBlob[]",
                          "components": [
                            {
                              "name": "deletionCriterion",
                              "type": "uint8",
                              "internalType": "enum DeletionCriterion"
                            },
                            {
                              "name": "blob",
                              "type": "bytes",
                              "internalType": "bytes"
                            }
                          ]
                        }
                      ]
                    },
                    {
                      "name": "logicRef",
                      "type": "bytes32",
                      "internalType": "bytes32"
                    }
                  ]
                },
                {
                  "name": "complianceUnits",
                  "type": "tuple[]",
                  "internalType": "struct ComplianceUnit[]",
                  "components": [
                    {
                      "name": "proof",
                      "type": "bytes",
                      "internalType": "bytes"
                    },
                    {
                      "name": "instance",
                      "type": "tuple",
                      "internalType": "struct ComplianceInstance",
                      "components": [
                        {
                          "name": "consumed",
                          "type": "tuple",
                          "internalType": "struct ConsumedRefs",
                          "components": [
                            {
                              "name": "nullifier",
                              "type": "bytes32",
                              "internalType": "bytes32"
                            },
                            {
                              "name": "logicRef",
                              "type": "bytes32",
                              "internalType": "bytes32"
                            },
                            {
                              "name": "commitmentTreeRoot",
                              "type": "bytes32",
                              "internalType": "bytes32"
                            }
                          ]
                        },
                        {
                          "name": "created",
                          "type": "tuple",
                          "internalType": "struct CreatedRefs",
                          "components": [
                            {
                              "name": "commitment",
                              "type": "bytes32",
                              "internalType": "bytes32"
                            },
                            {
                              "name": "logicRef",
                              "type": "bytes32",
                              "internalType": "bytes32"
                            }
                          ]
                        },
                        {
                          "name": "unitDeltaX",
                          "type": "bytes32",
                          "internalType": "bytes32"
                        },
                        {
                          "name": "unitDeltaY",
                          "type": "bytes32",
                          "internalType": "bytes32"
                        }
                      ]
                    }
                  ]
                },
                {
                  "name": "resourceCalldataPairs",
                  "type": "tuple[]",
                  "internalType": "struct ResourceForwarderCalldataPair[]",
                  "components": [
                    {
                      "name": "carrier",
                      "type": "tuple",
                      "internalType": "struct Resource",
                      "components": [
                        {
                          "name": "logicRef",
                          "type": "bytes32",
                          "internalType": "bytes32"
                        },
                        {
                          "name": "labelRef",
                          "type": "bytes32",
                          "internalType": "bytes32"
                        },
                        {
                          "name": "valueRef",
                          "type": "bytes32",
                          "internalType": "bytes32"
                        },
                        {
                          "name": "nullifierKeyCommitment",
                          "type": "bytes32",
                          "internalType": "bytes32"
                        },
                        {
                          "name": "quantity",
                          "type": "uint256",
                          "internalType": "uint256"
                        },
                        {
                          "name": "nonce",
                          "type": "uint256",
                          "internalType": "uint256"
                        },
                        {
                          "name": "randSeed",
                          "type": "uint256",
                          "internalType": "uint256"
                        },
                        {
                          "name": "ephemeral",
                          "type": "bool",
                          "internalType": "bool"
                        }
                      ]
                    },
                    {
                      "name": "call",
                      "type": "tuple",
                      "internalType": "struct ForwarderCalldata",
                      "components": [
                        {
                          "name": "untrustedForwarder",
                          "type": "address",
                          "internalType": "address"
                        },
                        {
                          "name": "input",
                          "type": "bytes",
                          "internalType": "bytes"
                        },
                        {
                          "name": "output",
                          "type": "bytes",
                          "internalType": "bytes"
                        }
                      ]
                    }
                  ]
                }
              ]
            },
            {
              "name": "deltaProof",
              "type": "bytes",
              "internalType": "bytes"
            }
          ]
        }
      ],
      "outputs": [],
      "stateMutability": "nonpayable"
    },
    {
      "type": "function",
      "name": "latestRoot",
      "inputs": [],
      "outputs": [
        {
          "name": "root",
          "type": "bytes32",
          "internalType": "bytes32"
        }
      ],
      "stateMutability": "view"
    },
    {
      "type": "function",
      "name": "lookupBlob",
      "inputs": [
        {
          "name": "blobHash",
          "type": "bytes32",
          "internalType": "bytes32"
        }
      ],
      "outputs": [
        {
          "name": "blob",
          "type": "bytes",
          "internalType": "bytes"
        }
      ],
      "stateMutability": "view"
    },
    {
      "type": "function",
      "name": "merkleProof",
      "inputs": [
        {
          "name": "commitment",
          "type": "bytes32",
          "internalType": "bytes32"
        }
      ],
      "outputs": [
        {
          "name": "siblings",
          "type": "bytes32[]",
          "internalType": "bytes32[]"
        },
        {
          "name": "directionBits",
          "type": "uint256",
          "internalType": "uint256"
        }
      ],
      "stateMutability": "view"
    },
    {
      "type": "function",
      "name": "verify",
      "inputs": [
        {
          "name": "transaction",
          "type": "tuple",
          "internalType": "struct Transaction",
          "components": [
            {
              "name": "actions",
              "type": "tuple[]",
              "internalType": "struct Action[]",
              "components": [
                {
                  "name": "logicProofs",
                  "type": "tuple[]",
                  "internalType": "struct LogicProof[]",
                  "components": [
                    {
                      "name": "proof",
                      "type": "bytes",
                      "internalType": "bytes"
                    },
                    {
                      "name": "instance",
                      "type": "tuple",
                      "internalType": "struct LogicInstance",
                      "components": [
                        {
                          "name": "tag",
                          "type": "bytes32",
                          "internalType": "bytes32"
                        },
                        {
                          "name": "isConsumed",
                          "type": "bool",
                          "internalType": "bool"
                        },
                        {
                          "name": "actionTreeRoot",
                          "type": "bytes32",
                          "internalType": "bytes32"
                        },
                        {
                          "name": "ciphertext",
                          "type": "bytes",
                          "internalType": "bytes"
                        },
                        {
                          "name": "appData",
                          "type": "tuple[]",
                          "internalType": "struct ExpirableBlob[]",
                          "components": [
                            {
                              "name": "deletionCriterion",
                              "type": "uint8",
                              "internalType": "enum DeletionCriterion"
                            },
                            {
                              "name": "blob",
                              "type": "bytes",
                              "internalType": "bytes"
                            }
                          ]
                        }
                      ]
                    },
                    {
                      "name": "logicRef",
                      "type": "bytes32",
                      "internalType": "bytes32"
                    }
                  ]
                },
                {
                  "name": "complianceUnits",
                  "type": "tuple[]",
                  "internalType": "struct ComplianceUnit[]",
                  "components": [
                    {
                      "name": "proof",
                      "type": "bytes",
                      "internalType": "bytes"
                    },
                    {
                      "name": "instance",
                      "type": "tuple",
                      "internalType": "struct ComplianceInstance",
                      "components": [
                        {
                          "name": "consumed",
                          "type": "tuple",
                          "internalType": "struct ConsumedRefs",
                          "components": [
                            {
                              "name": "nullifier",
                              "type": "bytes32",
                              "internalType": "bytes32"
                            },
                            {
                              "name": "logicRef",
                              "type": "bytes32",
                              "internalType": "bytes32"
                            },
                            {
                              "name": "commitmentTreeRoot",
                              "type": "bytes32",
                              "internalType": "bytes32"
                            }
                          ]
                        },
                        {
                          "name": "created",
                          "type": "tuple",
                          "internalType": "struct CreatedRefs",
                          "components": [
                            {
                              "name": "commitment",
                              "type": "bytes32",
                              "internalType": "bytes32"
                            },
                            {
                              "name": "logicRef",
                              "type": "bytes32",
                              "internalType": "bytes32"
                            }
                          ]
                        },
                        {
                          "name": "unitDeltaX",
                          "type": "bytes32",
                          "internalType": "bytes32"
                        },
                        {
                          "name": "unitDeltaY",
                          "type": "bytes32",
                          "internalType": "bytes32"
                        }
                      ]
                    }
                  ]
                },
                {
                  "name": "resourceCalldataPairs",
                  "type": "tuple[]",
                  "internalType": "struct ResourceForwarderCalldataPair[]",
                  "components": [
                    {
                      "name": "carrier",
                      "type": "tuple",
                      "internalType": "struct Resource",
                      "components": [
                        {
                          "name": "logicRef",
                          "type": "bytes32",
                          "internalType": "bytes32"
                        },
                        {
                          "name": "labelRef",
                          "type": "bytes32",
                          "internalType": "bytes32"
                        },
                        {
                          "name": "valueRef",
                          "type": "bytes32",
                          "internalType": "bytes32"
                        },
                        {
                          "name": "nullifierKeyCommitment",
                          "type": "bytes32",
                          "internalType": "bytes32"
                        },
                        {
                          "name": "quantity",
                          "type": "uint256",
                          "internalType": "uint256"
                        },
                        {
                          "name": "nonce",
                          "type": "uint256",
                          "internalType": "uint256"
                        },
                        {
                          "name": "randSeed",
                          "type": "uint256",
                          "internalType": "uint256"
                        },
                        {
                          "name": "ephemeral",
                          "type": "bool",
                          "internalType": "bool"
                        }
                      ]
                    },
                    {
                      "name": "call",
                      "type": "tuple",
                      "internalType": "struct ForwarderCalldata",
                      "components": [
                        {
                          "name": "untrustedForwarder",
                          "type": "address",
                          "internalType": "address"
                        },
                        {
                          "name": "input",
                          "type": "bytes",
                          "internalType": "bytes"
                        },
                        {
                          "name": "output",
                          "type": "bytes",
                          "internalType": "bytes"
                        }
                      ]
                    }
                  ]
                }
              ]
            },
            {
              "name": "deltaProof",
              "type": "bytes",
              "internalType": "bytes"
            }
          ]
        }
      ],
      "outputs": [],
      "stateMutability": "view"
    },
    {
      "type": "function",
      "name": "verifyMerkleProof",
      "inputs": [
        {
          "name": "root",
          "type": "bytes32",
          "internalType": "bytes32"
        },
        {
          "name": "commitment",
          "type": "bytes32",
          "internalType": "bytes32"
        },
        {
          "name": "path",
          "type": "bytes32[]",
          "internalType": "bytes32[]"
        },
        {
          "name": "directionBits",
          "type": "uint256",
          "internalType": "uint256"
        }
      ],
      "outputs": [],
      "stateMutability": "view"
    },
    {
      "type": "event",
      "name": "BlobStored",
      "inputs": [
        {
          "name": "blobHash",
          "type": "bytes32",
          "indexed": true,
          "internalType": "bytes32"
        },
        {
          "name": "deletionCriterion",
          "type": "uint8",
          "indexed": true,
          "internalType": "enum DeletionCriterion"
        }
      ],
      "anonymous": false
    },
    {
      "type": "event",
      "name": "CommitmentAdded",
      "inputs": [
        {
          "name": "commitment",
          "type": "bytes32",
          "indexed": true,
          "internalType": "bytes32"
        },
        {
          "name": "index",
          "type": "uint256",
          "indexed": true,
          "internalType": "uint256"
        }
      ],
      "anonymous": false
    },
    {
      "type": "event",
      "name": "NullifierAdded",
      "inputs": [
        {
          "name": "nullifier",
          "type": "bytes32",
          "indexed": true,
          "internalType": "bytes32"
        },
        {
          "name": "index",
          "type": "uint256",
          "indexed": true,
          "internalType": "uint256"
        }
      ],
      "anonymous": false
    },
    {
      "type": "event",
      "name": "RootAdded",
      "inputs": [
        {
          "name": "root",
          "type": "bytes32",
          "indexed": true,
          "internalType": "bytes32"
        }
      ],
      "anonymous": false
    },
    {
      "type": "event",
      "name": "TransactionExecuted",
      "inputs": [
        {
          "name": "id",
          "type": "uint256",
          "indexed": true,
          "internalType": "uint256"
        },
        {
          "name": "transaction",
          "type": "tuple",
          "indexed": false,
          "internalType": "struct Transaction",
          "components": [
            {
              "name": "actions",
              "type": "tuple[]",
              "internalType": "struct Action[]",
              "components": [
                {
                  "name": "logicProofs",
                  "type": "tuple[]",
                  "internalType": "struct LogicProof[]",
                  "components": [
                    {
                      "name": "proof",
                      "type": "bytes",
                      "internalType": "bytes"
                    },
                    {
                      "name": "instance",
                      "type": "tuple",
                      "internalType": "struct LogicInstance",
                      "components": [
                        {
                          "name": "tag",
                          "type": "bytes32",
                          "internalType": "bytes32"
                        },
                        {
                          "name": "isConsumed",
                          "type": "bool",
                          "internalType": "bool"
                        },
                        {
                          "name": "actionTreeRoot",
                          "type": "bytes32",
                          "internalType": "bytes32"
                        },
                        {
                          "name": "ciphertext",
                          "type": "bytes",
                          "internalType": "bytes"
                        },
                        {
                          "name": "appData",
                          "type": "tuple[]",
                          "internalType": "struct ExpirableBlob[]",
                          "components": [
                            {
                              "name": "deletionCriterion",
                              "type": "uint8",
                              "internalType": "enum DeletionCriterion"
                            },
                            {
                              "name": "blob",
                              "type": "bytes",
                              "internalType": "bytes"
                            }
                          ]
                        }
                      ]
                    },
                    {
                      "name": "logicRef",
                      "type": "bytes32",
                      "internalType": "bytes32"
                    }
                  ]
                },
                {
                  "name": "complianceUnits",
                  "type": "tuple[]",
                  "internalType": "struct ComplianceUnit[]",
                  "components": [
                    {
                      "name": "proof",
                      "type": "bytes",
                      "internalType": "bytes"
                    },
                    {
                      "name": "instance",
                      "type": "tuple",
                      "internalType": "struct ComplianceInstance",
                      "components": [
                        {
                          "name": "consumed",
                          "type": "tuple",
                          "internalType": "struct ConsumedRefs",
                          "components": [
                            {
                              "name": "nullifier",
                              "type": "bytes32",
                              "internalType": "bytes32"
                            },
                            {
                              "name": "logicRef",
                              "type": "bytes32",
                              "internalType": "bytes32"
                            },
                            {
                              "name": "commitmentTreeRoot",
                              "type": "bytes32",
                              "internalType": "bytes32"
                            }
                          ]
                        },
                        {
                          "name": "created",
                          "type": "tuple",
                          "internalType": "struct CreatedRefs",
                          "components": [
                            {
                              "name": "commitment",
                              "type": "bytes32",
                              "internalType": "bytes32"
                            },
                            {
                              "name": "logicRef",
                              "type": "bytes32",
                              "internalType": "bytes32"
                            }
                          ]
                        },
                        {
                          "name": "unitDeltaX",
                          "type": "bytes32",
                          "internalType": "bytes32"
                        },
                        {
                          "name": "unitDeltaY",
                          "type": "bytes32",
                          "internalType": "bytes32"
                        }
                      ]
                    }
                  ]
                },
                {
                  "name": "resourceCalldataPairs",
                  "type": "tuple[]",
                  "internalType": "struct ResourceForwarderCalldataPair[]",
                  "components": [
                    {
                      "name": "carrier",
                      "type": "tuple",
                      "internalType": "struct Resource",
                      "components": [
                        {
                          "name": "logicRef",
                          "type": "bytes32",
                          "internalType": "bytes32"
                        },
                        {
                          "name": "labelRef",
                          "type": "bytes32",
                          "internalType": "bytes32"
                        },
                        {
                          "name": "valueRef",
                          "type": "bytes32",
                          "internalType": "bytes32"
                        },
                        {
                          "name": "nullifierKeyCommitment",
                          "type": "bytes32",
                          "internalType": "bytes32"
                        },
                        {
                          "name": "quantity",
                          "type": "uint256",
                          "internalType": "uint256"
                        },
                        {
                          "name": "nonce",
                          "type": "uint256",
                          "internalType": "uint256"
                        },
                        {
                          "name": "randSeed",
                          "type": "uint256",
                          "internalType": "uint256"
                        },
                        {
                          "name": "ephemeral",
                          "type": "bool",
                          "internalType": "bool"
                        }
                      ]
                    },
                    {
                      "name": "call",
                      "type": "tuple",
                      "internalType": "struct ForwarderCalldata",
                      "components": [
                        {
                          "name": "untrustedForwarder",
                          "type": "address",
                          "internalType": "address"
                        },
                        {
                          "name": "input",
                          "type": "bytes",
                          "internalType": "bytes"
                        },
                        {
                          "name": "output",
                          "type": "bytes",
                          "internalType": "bytes"
                        }
                      ]
                    }
                  ]
                }
              ]
            },
            {
              "name": "deltaProof",
              "type": "bytes",
              "internalType": "bytes"
            }
          ]
        }
      ],
      "anonymous": false
    },
    {
      "type": "error",
      "name": "BlobEmpty",
      "inputs": []
    },
    {
      "type": "error",
      "name": "BlobHashMismatch",
      "inputs": [
        {
          "name": "expected",
          "type": "bytes32",
          "internalType": "bytes32"
        },
        {
          "name": "actual",
          "type": "bytes32",
          "internalType": "bytes32"
        }
      ]
    },
    {
      "type": "error",
      "name": "BlobNotFound",
      "inputs": [
        {
          "name": "blobHash",
          "type": "bytes32",
          "internalType": "bytes32"
        }
      ]
    },
    {
      "type": "error",
      "name": "CalldataCarrierAppDataMismatch",
      "inputs": [
        {
          "name": "expected",
          "type": "bytes32",
          "internalType": "bytes32"
        },
        {
          "name": "actual",
          "type": "bytes32",
          "internalType": "bytes32"
        }
      ]
    },
    {
      "type": "error",
      "name": "CalldataCarrierCommitmentNotFound",
      "inputs": [
        {
          "name": "commitment",
          "type": "bytes32",
          "internalType": "bytes32"
        }
      ]
    },
    {
      "type": "error",
      "name": "CalldataCarrierKindMismatch",
      "inputs": [
        {
          "name": "expected",
          "type": "bytes32",
          "internalType": "bytes32"
        },
        {
          "name": "actual",
          "type": "bytes32",
          "internalType": "bytes32"
        }
      ]
    },
    {
      "type": "error",
      "name": "CalldataCarrierLabelMismatch",
      "inputs": [
        {
          "name": "expected",
          "type": "bytes32",
          "internalType": "bytes32"
        },
        {
          "name": "actual",
          "type": "bytes32",
          "internalType": "bytes32"
        }
      ]
    },
    {
      "type": "error",
      "name": "CommitmentIndexOutOfBounds",
      "inputs": [
        {
          "name": "current",
          "type": "uint256",
          "internalType": "uint256"
        },
        {
          "name": "limit",
          "type": "uint256",
          "internalType": "uint256"
        }
      ]
    },
    {
      "type": "error",
      "name": "CommitmentMismatch",
      "inputs": [
        {
          "name": "expected",
          "type": "bytes32",
          "internalType": "bytes32"
        },
        {
          "name": "actual",
          "type": "bytes32",
          "internalType": "bytes32"
        }
      ]
    },
    {
      "type": "error",
      "name": "DeletionCriterionNotSupported",
      "inputs": [
        {
          "name": "deletionCriterion",
          "type": "uint8",
          "internalType": "enum DeletionCriterion"
        }
      ]
    },
    {
      "type": "error",
      "name": "DeltaMismatch",
      "inputs": [
        {
          "name": "expected",
          "type": "address",
          "internalType": "address"
        },
        {
          "name": "actual",
          "type": "address",
          "internalType": "address"
        }
      ]
    },
    {
      "type": "error",
      "name": "ECDSAInvalidSignature",
      "inputs": []
    },
    {
      "type": "error",
      "name": "ECDSAInvalidSignatureLength",
      "inputs": [
        {
          "name": "length",
          "type": "uint256",
          "internalType": "uint256"
        }
      ]
    },
    {
      "type": "error",
      "name": "ECDSAInvalidSignatureS",
      "inputs": [
        {
          "name": "s",
          "type": "bytes32",
          "internalType": "bytes32"
        }
      ]
    },
    {
      "type": "error",
      "name": "EmptyCommitment",
      "inputs": []
    },
    {
      "type": "error",
      "name": "ForwarderCallOutputMismatch",
      "inputs": [
        {
          "name": "expected",
          "type": "bytes",
          "internalType": "bytes"
        },
        {
          "name": "actual",
          "type": "bytes",
          "internalType": "bytes"
        }
      ]
    },
    {
      "type": "error",
      "name": "InvalidCommitmentRef",
      "inputs": [
        {
          "name": "commitment",
          "type": "bytes32",
          "internalType": "bytes32"
        }
      ]
    },
    {
      "type": "error",
      "name": "InvalidNullifierRef",
      "inputs": [
        {
          "name": "nullifier",
          "type": "bytes32",
          "internalType": "bytes32"
        }
      ]
    },
    {
      "type": "error",
      "name": "InvalidPathLength",
      "inputs": [
        {
          "name": "expected",
          "type": "uint256",
          "internalType": "uint256"
        },
        {
          "name": "actual",
          "type": "uint256",
          "internalType": "uint256"
        }
      ]
    },
    {
      "type": "error",
      "name": "InvalidRoot",
      "inputs": [
        {
          "name": "expected",
          "type": "bytes32",
          "internalType": "bytes32"
        },
        {
          "name": "actual",
          "type": "bytes32",
          "internalType": "bytes32"
        }
      ]
    },
    {
      "type": "error",
      "name": "InvalidRootRef",
      "inputs": [
        {
          "name": "root",
          "type": "bytes32",
          "internalType": "bytes32"
        }
      ]
    },
    {
      "type": "error",
      "name": "LogicProofTagNotFound",
      "inputs": [
        {
          "name": "tag",
          "type": "bytes32",
          "internalType": "bytes32"
        }
      ]
    },
    {
      "type": "error",
      "name": "LogicRefMismatch",
      "inputs": [
        {
          "name": "expected",
          "type": "bytes32",
          "internalType": "bytes32"
        },
        {
          "name": "actual",
          "type": "bytes32",
          "internalType": "bytes32"
        }
      ]
    },
    {
      "type": "error",
      "name": "NonEmptyDelta",
      "inputs": []
    },
    {
      "type": "error",
      "name": "NonExistentLeafIndex",
      "inputs": [
        {
          "name": "index",
          "type": "uint256",
          "internalType": "uint256"
        }
      ]
    },
    {
      "type": "error",
      "name": "NonExistingCommitment",
      "inputs": [
        {
          "name": "commitment",
          "type": "bytes32",
          "internalType": "bytes32"
        }
      ]
    },
    {
      "type": "error",
      "name": "NonExistingRoot",
      "inputs": [
        {
          "name": "root",
          "type": "bytes32",
          "internalType": "bytes32"
        }
      ]
    },
    {
      "type": "error",
      "name": "PreExistingCommitment",
      "inputs": [
        {
          "name": "commitment",
          "type": "bytes32",
          "internalType": "bytes32"
        }
      ]
    },
    {
      "type": "error",
      "name": "PreExistingNullifier",
      "inputs": [
        {
          "name": "nullifier",
          "type": "bytes32",
          "internalType": "bytes32"
        }
      ]
    },
    {
      "type": "error",
      "name": "PreExistingRoot",
      "inputs": [
        {
          "name": "root",
          "type": "bytes32",
          "internalType": "bytes32"
        }
      ]
    },
    {
      "type": "error",
      "name": "ReentrancyGuardReentrantCall",
      "inputs": []
    },
    {
      "type": "error",
      "name": "RootMismatch",
      "inputs": [
        {
          "name": "expected",
          "type": "bytes32",
          "internalType": "bytes32"
        },
        {
          "name": "actual",
          "type": "bytes32",
          "internalType": "bytes32"
        }
      ]
    },
    {
      "type": "error",
      "name": "TreeCapacityExceeded",
      "inputs": []
    }
  ],
  "bytecode": {
    "object": "0x60e0806040523461016b57608081613183803803809161001f828561016f565b83398101031261016b578051906001600160a01b038216820361016b5760208101519160ff61005c6060610055604086016101a6565b94016101a6565b9216806002557fcc1d2f838445db7aec431df9ee8a871f40e7aa5e064fc056633ef8c60fab7b06905f905b80821061010a5750505f805561009c816101b4565b156100f8575060805260c05260a052604051612f429081610241823960805181818161189b0152818161191701528181611c300152611cca015260a05181611c88015260c0518181816117530152818161178201526117b10152f35b63db788c2b60e01b5f5260045260245ffd5b90915f60209160028252808584842001556040518381019180835260408201526040815261013960608261016f565b604051918291518091835e8101838152039060025afa156101605760015f51920190610087565b6040513d5f823e3d90fd5b5f80fd5b601f909101601f19168101906001600160401b0382119082101761019257604052565b634e487b7160e01b5f52604160045260245ffd5b519060ff8216820361016b57565b805f52600460205260405f2054155f1461023b5760035468010000000000000000811015610192576001810180600355811015610227577fc2575a0e9e593c00f959f8c92f12db2869c3395a3b0502d05e2516446f71f85b018190556003545f9182526004602052604090912055600190565b634e487b7160e01b5f52603260045260245ffd5b505f9056fe60806040526004361015610011575f80fd5b5f3560e01c80632583f76314610f4857806348cbdfca14610f1457806359a8928314610d675780638310d48514610d30578063c235cd9e14610abe578063d7b0fef114610a385763ff4ffb8514610066575f80fd5b346104045761007436610f60565b7f9b779b17422d0df92223018b32b4d1fa46e071723d6817e2486d003becc55f005c610a105760017f9b779b17422d0df92223018b32b4d1fa46e071723d6817e2486d003becc55f005d6100c7816114bd565b6100d2600954610fb8565b8060095560405160208152606081016100eb8480610fc6565b80926040602086015252608083019060808360051b8501019281925f925b8284106106585788887f5c505a4208f28f3ee85822c85bceaa696c30a8a9833fa568a5fd614133912e0289806101588b6101466020880188611019565b90601f19858403016040860152611069565b0390a25f9061016781806111e3565b9190505f5b8281106101f6578361017d816129a9565b156101cb577f388a5f4af784e29fc791e14e90d372b6057e8379d9d5556e843545420c675dea5f80a25f7f9b779b17422d0df92223018b32b4d1fa46e071723d6817e2486d003becc55f005d005b7fdb788c2b000000000000000000000000000000000000000000000000000000005f5260045260245ffd5b61020a8161020484806111e3565b9061126a565b61021481806111e3565b90505f5b8181106104135750506040810161022f81836111e3565b9290505f5b838110610247575050505060010161016c565b6102da61026c6102618361025b87876111e3565b906112ed565b610100810190611237565b5f73ffffffffffffffffffffffffffffffffffffffff61028b83612510565b1661029960208401846113e2565b836040939293518097819582947f2dec7eb1000000000000000000000000000000000000000000000000000000008452602060048501526024840191611069565b03925af1918215610408575f92610388575b508151602083012090604081019161030e61030784846113e2565b3691611487565b602081519101200361032557505050600101610234565b61038491610332916113e2565b9190926103726040519485947fc504fada000000000000000000000000000000000000000000000000000000008652604060048701526044860191611069565b90600319848303016024850152610f93565b0390fd5b9091503d805f833e61039a8183611376565b8101906020818303126104045780519067ffffffffffffffff8211610404570181601f82011215610404578051906103d18261146b565b926103df6040519485611376565b8284526020838301011161040457815f9260208093018386015e83010152908a6102ec565b5f80fd5b6040513d5f823e3d90fd5b61042e6104248261020486806111e3565b6020810190611281565b60208101358015158103610404571561052157803561044c81612939565b50600654905f1982019182116104f4577f48baa580cd3e9c4040ffa9507f688e0d988bb8b15450fb680ce90fe52f7e544a5f80a3905b608082019161049183826111e3565b9050155b80156104ac5750506104a79150610fb8565b610218565b90916104c16104bb85856111e3565b906112b4565b906104cf60208301836113e2565b92356002811015610404576104ed936104e79261262e565b50610fb8565b9190610495565b7f4e487b71000000000000000000000000000000000000000000000000000000005f52601160045260245ffd5b80975035600254905f549061053582610fb8565b5f55600182018083116104f4576001841b8111610630578282945f905b80821061059457505050815f52600560205260405f20557f0c825ce0b2f71c91fa27e49984551a39d6f4db65958d2cf59a0ce45c3948312f5f80a39690610482565b909195825f52600160205260405f20875f526020528060405f205560018716155f146105fb5760025f527f405787fa12a823e0f2b7631cc41b3ba8828b3321ca811111fa75cd3aa3bb5ace8301546001916105ef91906128e1565b965b811c920190610552565b825f52600160205260405f20905f198801908882116104f45760019261062a925f5260205260405f20546128e1565b966105f1565b7f494a639d000000000000000000000000000000000000000000000000000000005f5260045ffd5b90919293947fffffffffffffffffffffffffffffffffffffffffffffffffffffffffffffff8087820301835261068e86836111b1565b606082019061069d8180610fc6565b809360608652526080840160808460051b86010193825f905b82821061095e5750505050506106cf6020820182610fc6565b84849294036020860152808252602082019060208160051b8401019480935f917fffffffffffffffffffffffffffffffffffffffffffffffffffffffffffffff0181360301925b8481106108c45750505050505050806040610732920190610fc6565b926040818403910152828252602082019060208460051b8401019381935f927ffffffffffffffffffffffffffffffffffffffffffffffffffffffffffffffee181360301905b83851061079b575050505050505060208060019297019301940192919390610109565b90919293949596601f1984820301875287358381121561040457826108199101803583526020810135602084015260408101356040840152606081013560608401526080810135608084015260a081013560a084015260c081013560c084015261080760e08201611089565b151560e08401526101008101906111b1565b61012061010083015280359173ffffffffffffffffffffffffffffffffffffffff8316809303610404576108b5602092826001956101208695015261088461087961086686850185611019565b6060610140860152610180850191611069565b926040810190611019565b916101607ffffffffffffffffffffffffffffffffffffffffffffffffffffffffffffffee082860301910152611069565b99019701950193929190610778565b90919293949597601f1984820301875288359085821215610404576020809161094f8660019501838061090a6108fa8480611019565b6101008852610100880191611069565b9401910160c08091803584526020810135602085015260408101356040850152606081013560608501526080810135608085015260a081013560a08501520135910152565b9a019701959493929101610716565b90919293957fffffffffffffffffffffffffffffffffffffffffffffffffffffffffffffff8088820301855261099487836111b1565b6109af6109a18280611019565b606085526060850191611069565b6020820135917fffffffffffffffffffffffffffffffffffffffffffffffffffffffffffffff618136030183121561040457836040806109fd858560209860019a8a990389880152016110cc565b93013591015298019501939201906106b6565b7f3ee5aeb5000000000000000000000000000000000000000000000000000000005f5260045ffd5b34610404575f600319360112610404576003545f1981018181116104f4576003541115610a915760035f527fc2575a0e9e593c00f959f8c92f12db2869c3395a3b0502d05e2516446f71f85a0154604051908152602090f35b7f4e487b71000000000000000000000000000000000000000000000000000000005f52603260045260245ffd5b346104045760206003193601126104045760043560025415610a915760025f527f405787fa12a823e0f2b7631cc41b3ba8828b3321ca811111fa75cd3aa3bb5ace548114610d0857805f52600560205260405f2054908115610cdd575f198201918083116104f4575f54809111610cae57505f8281527fa6eef7e35abe7026729641147f7915573c7e97b47efa546f5f6e3230263bcb49602052604090205490808203610c8057825f90600254610b74816113b1565b915f905b828210610bcc5750505060405190604082019260408352815180945260206060840192015f945b808610610bb457505082935060208301520390f35b90926020806001928651815201940195019490610b9f565b60018116610c5557815f52600160205260405f209060018101918282116104f4576001925f5260205260405f20549582841b17955b80610c45575060025f527f405787fa12a823e0f2b7631cc41b3ba8828b3321ca811111fa75cd3aa3bb5ace830154610c398487611457565b525b811c910190610b78565b610c4f8487611457565b52610c3b565b815f52600160205260405f20905f198101918183116104f4576001925f5260205260405f2054610c01565b7fc9e0e757000000000000000000000000000000000000000000000000000000005f5260045260245260445ffd5b827fdbc744cd000000000000000000000000000000000000000000000000000000005f5260045260245260445ffd5b7fff34f2b6000000000000000000000000000000000000000000000000000000005f5260045260245ffd5b7faac1fcc6000000000000000000000000000000000000000000000000000000005f5260045ffd5b3461040457602060031936011261040457610d63610d4f600435612370565b604051918291602083526020830190610f93565b0390f35b346104045760806003193601126104045760443560043567ffffffffffffffff821161040457366023830112156104045781600401359167ffffffffffffffff83116104045760248360051b8201013681116104045760643591600254808603610ee45750610de1845f52600460205260405f2054151590565b15610eb857610def85611399565b94610dfd6040519687611376565b8552602401602085015b828210610ea857505050602435928051905f925b828410610e5b578585818103610e2d57005b7fa0d3b062000000000000000000000000000000000000000000000000000000005f5260045260245260445ffd5b909192946001908183881c16155f14610e8d57610e8290610e7c8886611457565b516128e1565b955b01929190610e1b565b610ea290610e9b8886611457565b51906128e1565b95610e84565b8135815260209182019101610e07565b837ff9849ea3000000000000000000000000000000000000000000000000000000005f5260045260245ffd5b85907f88b3170e000000000000000000000000000000000000000000000000000000005f5260045260245260445ffd5b34610404576020600319360112610404576020610f3e6004355f52600460205260405f2054151590565b6040519015158152f35b3461040457610f5e610f5936610f60565b6114bd565b005b6020600319820112610404576004359067ffffffffffffffff821161040457600319826040920301126104045760040190565b90601f19601f602080948051918291828752018686015e5f8582860101520116010190565b5f1981146104f45760010190565b90357fffffffffffffffffffffffffffffffffffffffffffffffffffffffffffffffe18236030181121561040457016020813591019167ffffffffffffffff8211610404578160051b3603831361040457565b90357fffffffffffffffffffffffffffffffffffffffffffffffffffffffffffffffe18236030181121561040457016020813591019167ffffffffffffffff821161040457813603831361040457565b601f8260209493601f1993818652868601375f8582860101520116010190565b3590811515820361040457565b908135916002831015610404576110b96040916110c99484526020810190611019565b9190928160208201520191611069565b90565b90813581526110dd60208301611089565b151560208201526040820135604082015261111d6111126111016060850185611019565b60a0606086015260a0850191611069565b926080810190610fc6565b9290916080818303910152828152602081019260208160051b83010193835f917fffffffffffffffffffffffffffffffffffffffffffffffffffffffffffffffc182360301945b848410611175575050505050505090565b90919293949596601f198282030183528735878112156104045760206111a060019387839401611096565b990193019401929195949390611164565b90357fffffffffffffffffffffffffffffffffffffffffffffffffffffffffffffffa182360301811215610404570190565b9035907fffffffffffffffffffffffffffffffffffffffffffffffffffffffffffffffe181360301821215610404570180359067ffffffffffffffff821161040457602001918160051b3603831361040457565b9035907fffffffffffffffffffffffffffffffffffffffffffffffffffffffffffffffa181360301821215610404570190565b90821015610a91576110c99160051b810190611237565b9035907fffffffffffffffffffffffffffffffffffffffffffffffffffffffffffffff6181360301821215610404570190565b9015610a91578035907fffffffffffffffffffffffffffffffffffffffffffffffffffffffffffffffc181360301821215610404570190565b9190811015610a915760051b810135907ffffffffffffffffffffffffffffffffffffffffffffffffffffffffffffffee181360301821215610404570190565b6040810190811067ffffffffffffffff82111761134957604052565b7f4e487b71000000000000000000000000000000000000000000000000000000005f52604160045260245ffd5b90601f601f19910116810190811067ffffffffffffffff82111761134957604052565b67ffffffffffffffff81116113495760051b60200190565b906113bb82611399565b6113c86040519182611376565b828152601f196113d88294611399565b0190602036910137565b9035907fffffffffffffffffffffffffffffffffffffffffffffffffffffffffffffffe181360301821215610404570180359067ffffffffffffffff82116104045760200191813603831361040457565b9061144d9060409396959496606084526060840191611069565b9460208201520152565b8051821015610a915760209160051b010190565b67ffffffffffffffff811161134957601f01601f191660200190565b9291926114938261146b565b916114a16040519384611376565b829481845281830111610404578281602093845f960137010152565b604080516114cb8282611376565b8136823760017f483ada7726a3c4655da4fbfc0e1108a8fd17b448a68554199c47d08ffb10d4b87f79be667ef9dcbbac55a06295ce870b07029bfcdb2dce28d959f2815b16f8179882806122e2565b50806122da575b1561227d575f928360016401000003d019835b6121f15750505050906401000003d0198092818086800980920994099009602083015281529161156481806111e3565b90505f805b8282106121c45761157a91506113b1565b905f5f5b8281106116e75750506115d55750505080511590816115c8575b50156115a057565b7fe073516d000000000000000000000000000000000000000000000000000000005f5260045ffd5b602091500151155f611598565b825160208101918260208251919201905f5b8181106116d15750505091816116095f9360209503601f198101835282611376565b8551918291518091835e8101838152039060025afa156116c7576116649273ffffffffffffffffffffffffffffffffffffffff9261165b84936116556103075f519260208101906113e2565b90612bc1565b90969196612bfb565b602082519201519080519160208301938452818301528152611687606082611376565b51902016911690808203611699575050565b7fe6d44b4c000000000000000000000000000000000000000000000000000000005f5260045260245260445ffd5b50513d5f823e3d90fd5b82518452602093840193909201916001016115e7565b6116f58161020487806111e3565b86810161170281836111e3565b9190505f5b828110611eea5750505061171e60208201826111e3565b5f91505b808210611af057505061173581806111e3565b9050611740816113b1565b5f5b828110611aca5750611779600160ff7f0000000000000000000000000000000000000000000000000000000000000000161b6113b1565b905f5b600160ff7f0000000000000000000000000000000000000000000000000000000000000000161b8110611a6f575050600160ff7f0000000000000000000000000000000000000000000000000000000000000000161b5b600181116119b15750805115610a915760200151915f5b8281106117fd575050505060010161157e565b61180b8161020484806111e3565b6020810190858c61181c8484611281565b01350361197457908160205f8e6118368461183f976113e2565b96909585611281565b908051906118688261185a87820195888752848301906110cc565b03601f198101845283611376565b51918291518091835e8101838152039060025afa1561196a575f519073ffffffffffffffffffffffffffffffffffffffff7f0000000000000000000000000000000000000000000000000000000000000000163b15610404576118fe8e925f94845196879586957fab750e7500000000000000000000000000000000000000000000000000000000875201359160048601611433565b038173ffffffffffffffffffffffffffffffffffffffff7f0000000000000000000000000000000000000000000000000000000000000000165afa8015611960579060019291611950575b50016117ea565b5f61195a91611376565b5f611949565b8b513d5f823e3d90fd5b8c513d5f823e3d90fd5b61198086928d92611281565b0135907f7c532e31000000000000000000000000000000000000000000000000000000005f5260045260245260445ffd5b5f5b8160011c81106119c6575060011c6117d3565b8060011b7f7fffffffffffffffffffffffffffffffffffffffffffffffffffffffffffffff821682036104f4576119fd8185611457565b5190600181018091116104f4576020918d611a195f9388611457565b519080519185830193845281830152808252611a36606083611376565b51918291518091835e8101838152039060025afa15611a65576001905f51611a5e8286611457565b52016119b3565b8a513d5f823e3d90fd5b600190825181105f14611a9957611a868184611457565b51611a918286611457565b525b0161177c565b7fcc1d2f838445db7aec431df9ee8a871f40e7aa5e064fc056633ef8c60fab7b06611ac48286611457565b52611a93565b80611ade61042460019361020488806111e3565b35611ae98285611457565b5201611742565b9098611aff60208401846111e3565b8b9291921015610a91578a60051b820135907fffffffffffffffffffffffffffffffffffffffffffffffffffffffffffffff0183360301821215610404576020828401019660608385010135611b60815f52600460205260405f2054151590565b15611ebf575087355f5260076020528b5f2054611e9257608083850101355f5260056020528b5f2054611e60578b8860205f611b9e888801806113e2565b939094805190611bed858301809460c08091803584526020810135602085015260408101356040850152606081013560608501526080810135608085015260a081013560a08501520135910152565b60e08252611bfd61010083611376565b51918291518091835e8101838152039060025afa15611e56575f519173ffffffffffffffffffffffffffffffffffffffff7f0000000000000000000000000000000000000000000000000000000000000000163b15610404575f918f611cb1905194859384937fab750e750000000000000000000000000000000000000000000000000000000085527f00000000000000000000000000000000000000000000000000000000000000009160048601611433565b038173ffffffffffffffffffffffffffffffffffffffff7f0000000000000000000000000000000000000000000000000000000000000000165afa8015611e5657611e46575b50611d0d611d0587806111e3565b8a35916125af565b8c808587010135910135808203611e18575050611d35611d2c82610fb8565b9835918b611457565b52611d50611d4386806111e3565b60808587010135916125af565b8b60a08486010135910135808203611e18575050908a60019392611d7389610fb8565b98611d8560808587010135918d611457565b52871580611e10575b15611dbb57509060e0915192611da38461132d565b0160c0810135835201356020820152995b0190611722565b9092611e039260e0855191611dcf8361132d565b60c08185010135835260208301930101358252611dee85519586611376565b8d3686376020835193015190519151926129fe565b6020830152815299611db4565b508d15611d8e565b7f18f639d8000000000000000000000000000000000000000000000000000000005f5260045260245260445ffd5b5f611e5091611376565b5f611cf7565b8d513d5f823e3d90fd5b608083857f96539bd4000000000000000000000000000000000000000000000000000000005f5201013560045260245ffd5b877f39a940c5000000000000000000000000000000000000000000000000000000005f523560045260245ffd5b7ff9849ea3000000000000000000000000000000000000000000000000000000005f5260045260245ffd5b611ef88161025b84876111e3565b611f096102618361025b86896111e3565b60205f8d611f173686612531565b908382519201519080519185830193845281830152808252611f3a606083611376565b51918291518091835e8101838152039060025afa15611960575f51600460208e73ffffffffffffffffffffffffffffffffffffffff611f7886612510565b169051928380927f033f96a40000000000000000000000000000000000000000000000000000000082525afa9081156121ba575f91612189575b5080820361215b5750509061206060205f848f956120488761203a611ff7611fdb606095612510565b95612028611feb8a8301836113e2565b939092868101906113e2565b929093865198899773ffffffffffffffffffffffffffffffffffffffff8e8a019c168c528801526080870191611069565b91601f19858403016060860152611069565b03601f198101835282611376565b519020946120568a806111e3565b9490953690612531565b9080519060e08583019380518552868101518385015282810151606085015260608101516080850152608081015160a085015260a081015160c085015260c0810151828501520151151561010083015261010082526120c161012083611376565b51918291518091835e8101838152039060025afa1561196a576121186121026104bb8f946104246120f89161203a965f51916125af565b60808101906111e3565b8351928391602083019560208752830190611096565b5190209080820361212d575050600101611707565b7f64cc8b14000000000000000000000000000000000000000000000000000000005f5260045260245260445ffd5b7fd3167e32000000000000000000000000000000000000000000000000000000005f5260045260245260445ffd5b90506020813d82116121b2575b816121a360209383611376565b8101031261040457515f611fb2565b3d9150612196565b8e513d5f823e3d90fd5b6121db6121d58361020487806111e3565b806111e3565b905081018091116104f457600190910190611569565b61220084829893949598612611565b928094612250576401000003d0199084096401000003d01903906401000003d01982116104f4576122416401000003d019612247935f95089598809561261b565b90612503565b92909183611534565b7f4e487b71000000000000000000000000000000000000000000000000000000005f52601260045260245ffd5b606485517f08c379a000000000000000000000000000000000000000000000000000000000815260206004820152600e60248201527f496e76616c6964206e756d6265720000000000000000000000000000000000006044820152fd5b506001611521565b6401000003d019915014155f61151a565b5f604051612302602082611376565b525f6040518180805e5260205f808060025afa15610408575f5190565b90600182811c92168015612366575b602083101461233957565b7f4e487b71000000000000000000000000000000000000000000000000000000005f52602260045260245ffd5b91607f169161232e565b906123796122f3565b82146124db57815f52600860205260405f2060405190815f82549261239d8461231f565b9081845260208401946001811690815f146124a05750600114612461575b5050916123cd5f926020940385611376565b604051809185518091835e8101838152039060025afa15610408575f516123f26122f3565b810361242457837f632989d6000000000000000000000000000000000000000000000000000000005f5260045260245ffd5b90919281810361243357505090565b7f1844c87b000000000000000000000000000000000000000000000000000000005f5260045260245260445ffd5b5f908152602081209092505b81831061248457505081016020016123cd5f6123bb565b602091935080600191548385890101520191019091849261246d565b7fffffffffffffffffffffffffffffffffffffffffffffffffffffffffffffff001686525050151560051b820160200190506123cd5f6123bb565b7ff82ea8b4000000000000000000000000000000000000000000000000000000005f5260045ffd5b919082039182116104f457565b3573ffffffffffffffffffffffffffffffffffffffff811681036104045790565b91908261010091031261040457604051610100810181811067ffffffffffffffff8211176113495760405260e06125aa818395803585526020810135602086015260408101356040860152606081013560608601526080810135608086015260a081013560a086015260c081013560c086015201611089565b910152565b909291925f5b8181106125e857847f4e90c0bf000000000000000000000000000000000000000000000000000000005f5260045260245ffd5b846125f761042483858761126a565b3514612605576001016125b5565b916110c993945061126a565b8115612250570490565b818102929181159184041417156104f457565b919060205f6040518386823780848101838152039060025afa15610408575f51926126576122f3565b84146124db57600283109182156127105783612674575050505090565b845f52600860205260405f20604051905f908054906126928261231f565b91600181169081156128ab5750600114612878575b5050816020925f92039060025afa15610408575f516126c46122f3565b146126d0575050505090565b9294919390926001861461273d5785857f4d511600000000000000000000000000000000000000000000000000000000005f52156127105760045260245ffd5b7f4e487b71000000000000000000000000000000000000000000000000000000005f52602160045260245ffd5b9193509193506001827f2266f858e35b42156890bf9a1a4dd4ac86bcaf4e1e8a1669096531ac46c9728b5f80a3815f52600860205260405f209067ffffffffffffffff811161134957612790825461231f565b601f8111612833575b505f601f82116001146127d25781929394955f926127c7575b50505f198260011b9260031b1c191617905590565b013590505f806127b2565b601f19821695835f5260205f20915f5b88811061281b57508360019596979810612802575b505050811b01905590565b5f1960f88560031b161c199101351690555f80806127f7565b909260206001819286860135815501940191016127e2565b825f5260205f20601f830160051c8101916020841061286e575b601f0160051c01905b8181106128635750612799565b5f8155600101612856565b909150819061284d565b9091505f5260205f205f905b82821061289757505081018160206126a7565b600181602092548487015201910190612884565b7fffffffffffffffffffffffffffffffffffffffffffffffffffffffffffffff00168552505080151502820190508160206126a7565b5f9060209260405190848201928352604082015260408152612904606082611376565b604051918291518091835e8101838152039060025afa15610408575f5190565b8054821015610a91575f5260205f2001905f90565b805f52600760205260405f2054155f146129a457600654680100000000000000008110156113495761298d6129778260018594016006556006612924565b81939154905f199060031b92831b921b19161790565b9055600654905f52600760205260405f2055600190565b505f90565b805f52600460205260405f2054155f146129a45760035468010000000000000000811015611349576129e76129778260018594016003556003612924565b9055600354905f52600460205260405f2055600190565b9093929091808303612ba857506401000003d019908408612a2157505f91508190565b6401000003d0198380096401000003d0195f8180808086880960040995800960030908906401000003d019918284800883038381116104f4578390818380090893848403928484116104f457848091800960080984038481116104f45784600193818096819508900908950960020992905b8315158481612b97575b5080612b8f575b15612b31575f938460016401000003d019835b612ad85750505050906401000003d019809281808780098092099509900990565b612ae784829993949599612611565b928094612250576401000003d0199084096401000003d01903906401000003d01982116104f4576122416401000003d019612b28935f95089599809561261b565b92909183612ab7565b60646040517f08c379a000000000000000000000000000000000000000000000000000000000815260206004820152600e60248201527f496e76616c6964206e756d6265720000000000000000000000000000000000006044820152fd5b506001612aa4565b6401000003d019915014155f612a9d565b612bba93946401000003d01993612ca6565b9291612a93565b8151919060418303612bf157612bea9250602082015190606060408401519301515f1a90612eb3565b9192909190565b50505f9160029190565b60048110156127105780612c0d575050565b60018103612c3d577ff645eedf000000000000000000000000000000000000000000000000000000005f5260045ffd5b60028103612c7157507ffce698f7000000000000000000000000000000000000000000000000000000005f5260045260245ffd5b600314612c7b5750565b7fd78bce0c000000000000000000000000000000000000000000000000000000005f5260045260245ffd5b9492909391851580612eab575b612ea057801580612e98575b612e9057604051608091612cd38383611376565b8236833784156122505784600180098083529385856001099860208401998a52604084019286845287845160010993606086019485526040519a878c01958c871067ffffffffffffffff881117611349578a80979581969482956040525190098d525190099460208b019586525190099860408901998a52519009606087019081528651885114801590612e84575b15612e2657849283808093816040519c85612d7e8f9788611376565b368737518c51612d8e9083612503565b90088452518551612d9f9083612503565b90089860208301998a5281808b8180808089518a5190099360408a019485528185518b5190096060909a01998a525180098851612ddc9083612503565b90088180875185519009600209612df39083612503565b90089c51935190519009612e078c83612503565b90089009925190519009612e1b9083612503565b900894510991929190565b60646040517f08c379a000000000000000000000000000000000000000000000000000000000815260206004820152601e60248201527f557365206a6163446f75626c652066756e6374696f6e20696e737465616400006044820152fd5b50815181511415612d62565b505050600190565b508115612cbf565b945092506001919050565b508415612cb3565b91907f7fffffffffffffffffffffffffffffff5d576e7357a4501ddfe92f46681b20a08411612f37579160209360809260ff5f9560405194855216868401526040830152606082015282805260015afa15610408575f5173ffffffffffffffffffffffffffffffffffffffff811615612f2d57905f905f90565b505f906001905f90565b5050505f916003919056",
    "linkReferences": {}
  },
  "methodIdentifiers": {
    "containsRoot(bytes32)": "48cbdfca",
    "execute((((bytes,(bytes32,bool,bytes32,bytes,(uint8,bytes)[]),bytes32)[],(bytes,((bytes32,bytes32,bytes32),(bytes32,bytes32),bytes32,bytes32))[],((bytes32,bytes32,bytes32,bytes32,uint256,uint256,uint256,bool),(address,bytes,bytes))[])[],bytes))": "ff4ffb85",
    "latestRoot()": "d7b0fef1",
    "lookupBlob(bytes32)": "8310d485",
    "merkleProof(bytes32)": "c235cd9e",
    "verify((((bytes,(bytes32,bool,bytes32,bytes,(uint8,bytes)[]),bytes32)[],(bytes,((bytes32,bytes32,bytes32),(bytes32,bytes32),bytes32,bytes32))[],((bytes32,bytes32,bytes32,bytes32,uint256,uint256,uint256,bool),(address,bytes,bytes))[])[],bytes))": "2583f763",
    "verifyMerkleProof(bytes32,bytes32,bytes32[],uint256)": "59a89283"
  },
  "id": 44
}